{"abi":[{"type":"constructor","inputs":[],"stateMutability":"nonpayable"},{"type":"function","name":"approve","inputs":[{"name":"to","type":"address","internalType":"address"},{"name":"tokenId","type":"uint256","internalType":"uint256"}],"outputs":[],"stateMutability":"nonpayable"},{"type":"function","name":"balanceOf","inputs":[{"name":"owner","type":"address","internalType":"address"}],"outputs":[{"name":"","type":"uint256","internalType":"uint256"}],"stateMutability":"view"},{"type":"function","name":"createToken","inputs":[{"name":"tokenURI","type":"string","internalType":"string"},{"name":"price","type":"uint256","internalType":"uint256"}],"outputs":[{"name":"","type":"uint256","internalType":"uint256"}],"stateMutability":"payable"},{"type":"function","name":"executeSale","inputs":[{"name":"tokenId","type":"uint256","internalType":"uint256"}],"outputs":[],"stateMutability":"payable"},{"type":"function","name":"getAllNFTs","inputs":[],"outputs":[{"name":"","type":"tuple[]","internalType":"struct NFTBidMarketplace.ListedToken[]","components":[{"name":"tokenId","type":"uint256","internalType":"uint256"},{"name":"owner","type":"address","internalType":"address payable"},{"name":"seller","type":"address","internalType":"address payable"},{"name":"price","type":"uint256","internalType":"uint256"},{"name":"currentlyListed","type":"bool","internalType":"bool"}]}],"stateMutability":"view"},{"type":"function","name":"getApproved","inputs":[{"name":"tokenId","type":"uint256","internalType":"uint256"}],"outputs":[{"name":"","type":"address","internalType":"address"}],"stateMutability":"view"},{"type":"function","name":"getCurrentToken","inputs":[],"outputs":[{"name":"","type":"uint256","internalType":"uint256"}],"stateMutability":"view"},{"type":"function","name":"getLatestIdToListedToken","inputs":[],"outputs":[{"name":"","type":"tuple","internalType":"struct NFTBidMarketplace.ListedToken","components":[{"name":"tokenId","type":"uint256","internalType":"uint256"},{"name":"owner","type":"address","internalType":"address payable"},{"name":"seller","type":"address","internalType":"address payable"},{"name":"price","type":"uint256","internalType":"uint256"},{"name":"currentlyListed","type":"bool","internalType":"bool"}]}],"stateMutability":"view"},{"type":"function","name":"getListingFee","inputs":[],"outputs":[{"name":"","type":"uint256","internalType":"uint256"}],"stateMutability":"view"},{"type":"function","name":"getListingForToken","inputs":[{"name":"tokenId","type":"uint256","internalType":"uint256"}],"outputs":[{"name":"","type":"tuple","internalType":"struct NFTBidMarketplace.ListedToken","components":[{"name":"tokenId","type":"uint256","internalType":"uint256"},{"name":"owner","type":"address","internalType":"address payable"},{"name":"seller","type":"address","internalType":"address payable"},{"name":"price","type":"uint256","internalType":"uint256"},{"name":"currentlyListed","type":"bool","internalType":"bool"}]}],"stateMutability":"view"},{"type":"function","name":"getMyNFTs","inputs":[],"outputs":[{"name":"","type":"tuple[]","internalType":"struct NFTBidMarketplace.ListedToken[]","components":[{"name":"tokenId","type":"uint256","internalType":"uint256"},{"name":"owner","type":"address","internalType":"address payable"},{"name":"seller","type":"address","internalType":"address payable"},{"name":"price","type":"uint256","internalType":"uint256"},{"name":"currentlyListed","type":"bool","internalType":"bool"}]}],"stateMutability":"view"},{"type":"function","name":"isApprovedForAll","inputs":[{"name":"owner","type":"address","internalType":"address"},{"name":"operator","type":"address","internalType":"address"}],"outputs":[{"name":"","type":"bool","internalType":"bool"}],"stateMutability":"view"},{"type":"function","name":"name","inputs":[],"outputs":[{"name":"","type":"string","internalType":"string"}],"stateMutability":"view"},{"type":"function","name":"ownerOf","inputs":[{"name":"tokenId","type":"uint256","internalType":"uint256"}],"outputs":[{"name":"","type":"address","internalType":"address"}],"stateMutability":"view"},{"type":"function","name":"safeTransferFrom","inputs":[{"name":"from","type":"address","internalType":"address"},{"name":"to","type":"address","internalType":"address"},{"name":"tokenId","type":"uint256","internalType":"uint256"}],"outputs":[],"stateMutability":"nonpayable"},{"type":"function","name":"safeTransferFrom","inputs":[{"name":"from","type":"address","internalType":"address"},{"name":"to","type":"address","internalType":"address"},{"name":"tokenId","type":"uint256","internalType":"uint256"},{"name":"data","type":"bytes","internalType":"bytes"}],"outputs":[],"stateMutability":"nonpayable"},{"type":"function","name":"setApprovalForAll","inputs":[{"name":"operator","type":"address","internalType":"address"},{"name":"approved","type":"bool","internalType":"bool"}],"outputs":[],"stateMutability":"nonpayable"},{"type":"function","name":"supportsInterface","inputs":[{"name":"interfaceId","type":"bytes4","internalType":"bytes4"}],"outputs":[{"name":"","type":"bool","internalType":"bool"}],"stateMutability":"view"},{"type":"function","name":"symbol","inputs":[],"outputs":[{"name":"","type":"string","internalType":"string"}],"stateMutability":"view"},{"type":"function","name":"tokenURI","inputs":[{"name":"tokenId","type":"uint256","internalType":"uint256"}],"outputs":[{"name":"","type":"string","internalType":"string"}],"stateMutability":"view"},{"type":"function","name":"transferFrom","inputs":[{"name":"from","type":"address","internalType":"address"},{"name":"to","type":"address","internalType":"address"},{"name":"tokenId","type":"uint256","internalType":"uint256"}],"outputs":[],"stateMutability":"nonpayable"},{"type":"function","name":"updateListingFee","inputs":[{"name":"_newFee","type":"uint256","internalType":"uint256"}],"outputs":[],"stateMutability":"payable"},{"type":"event","name":"Approval","inputs":[{"name":"owner","type":"address","indexed":true,"internalType":"address"},{"name":"approved","type":"address","indexed":true,"internalType":"address"},{"name":"tokenId","type":"uint256","indexed":true,"internalType":"uint256"}],"anonymous":false},{"type":"event","name":"ApprovalForAll","inputs":[{"name":"owner","type":"address","indexed":true,"internalType":"address"},{"name":"operator","type":"address","indexed":true,"internalType":"address"},{"name":"approved","type":"bool","indexed":false,"internalType":"bool"}],"anonymous":false},{"type":"event","name":"BatchMetadataUpdate","inputs":[{"name":"_fromTokenId","type":"uint256","indexed":false,"internalType":"uint256"},{"name":"_toTokenId","type":"uint256","indexed":false,"internalType":"uint256"}],"anonymous":false},{"type":"event","name":"MetadataUpdate","inputs":[{"name":"_tokenId","type":"uint256","indexed":false,"internalType":"uint256"}],"anonymous":false},{"type":"event","name":"Transfer","inputs":[{"name":"from","type":"address","indexed":true,"internalType":"address"},{"name":"to","type":"address","indexed":true,"internalType":"address"},{"name":"tokenId","type":"uint256","indexed":true,"internalType":"uint256"}],"anonymous":false}],"bytecode":{"object":"0x6080604052662386f26fc10000600a5534801561001a575f5ffd5b506040518060400160405280600681526020017f42696473656100000000000000000000000000000000000000000000000000008152506040518060400160405280600281526020017f4253000000000000000000000000000000000000000000000000000000000000815250815f9081610095919061032a565b5080600190816100a5919061032a565b5050503360075f6101000a81548173ffffffffffffffffffffffffffffffffffffffff021916908373ffffffffffffffffffffffffffffffffffffffff1602179055506103f9565b5f81519050919050565b7f4e487b71000000000000000000000000000000000000000000000000000000005f52604160045260245ffd5b7f4e487b71000000000000000000000000000000000000000000000000000000005f52602260045260245ffd5b5f600282049050600182168061016857607f821691505b60208210810361017b5761017a610124565b5b50919050565b5f819050815f5260205f209050919050565b5f6020601f8301049050919050565b5f82821b905092915050565b5f600883026101dd7fffffffffffffffffffffffffffffffffffffffffffffffffffffffffffffffff826101a2565b6101e786836101a2565b95508019841693508086168417925050509392505050565b5f819050919050565b5f819050919050565b5f61022b610226610221846101ff565b610208565b6101ff565b9050919050565b5f819050919050565b61024483610211565b61025861025082610232565b8484546101ae565b825550505050565b5f5f905090565b61026f610260565b61027a81848461023b565b505050565b5b8181101561029d576102925f82610267565b600181019050610280565b5050565b601f8211156102e2576102b381610181565b6102bc84610193565b810160208510156102cb578190505b6102df6102d785610193565b83018261027f565b50505b505050565b5f82821c905092915050565b5f6103025f19846008026102e7565b1980831691505092915050565b5f61031a83836102f3565b9150826002028217905092915050565b610333826100ed565b67ffffffffffffffff81111561034c5761034b6100f7565b5b6103568254610151565b6103618282856102a1565b5f60209050601f831160018114610392575f8415610380578287015190505b61038a858261030f565b8655506103f1565b601f1984166103a086610181565b5f5b828110156103c7578489015182556001820191506020850194506020810190506103a2565b868310156103e457848901516103e0601f8916826102f3565b8355505b6001600288020188555050505b505050505050565b613d6e806104065f395ff3fe608060405260043610610134575f3560e01c806395d89b41116100aa578063c87b56dd1161006e578063c87b56dd14610420578063d1a88ae51461045c578063e0391b0914610486578063e985e9c5146104b0578063ef2d1746146104ec578063f79d91ae1461051657610134565b806395d89b41146103605780639b1225c41461038a578063a22cb465146103a6578063b88d4fde146103ce578063b8fe6abe146103f657610134565b806323b872dd116100fc57806323b872dd1461023e57806342842e0e14610266578063629cb2e41461028e5780636352211e146102b857806370a08231146102f457806372b3b6201461033057610134565b806301ffc9a71461013857806306fdde0314610174578063081812fc1461019e578063095ea7b3146101da5780631ad2e0ad14610202575b5f5ffd5b348015610143575f5ffd5b5061015e6004803603810190610159919061284e565b610532565b60405161016b9190612893565b60405180910390f35b34801561017f575f5ffd5b50610188610592565b604051610195919061291c565b60405180910390f35b3480156101a9575f5ffd5b506101c460048036038101906101bf919061296f565b610621565b6040516101d191906129d9565b60405180910390f35b3480156101e5575f5ffd5b5061020060048036038101906101fb9190612a1c565b610663565b005b34801561020d575f5ffd5b506102286004803603810190610223919061296f565b610779565b6040516102359190612afe565b60405180910390f35b348015610249575f5ffd5b50610264600480360381019061025f9190612b17565b61087b565b005b348015610271575f5ffd5b5061028c60048036038101906102879190612b17565b6108db565b005b348015610299575f5ffd5b506102a26108fa565b6040516102af9190612c75565b60405180910390f35b3480156102c3575f5ffd5b506102de60048036038101906102d9919061296f565b610cbf565b6040516102eb91906129d9565b60405180910390f35b3480156102ff575f5ffd5b5061031a60048036038101906103159190612c95565b610d43565b6040516103279190612ccf565b60405180910390f35b61034a60048036038101906103459190612e14565b610df7565b6040516103579190612ccf565b60405180910390f35b34801561036b575f5ffd5b50610374610ebd565b604051610381919061291c565b60405180910390f35b6103a4600480360381019061039f919061296f565b610f4d565b005b3480156103b1575f5ffd5b506103cc60048036038101906103c79190612e98565b611126565b005b3480156103d9575f5ffd5b506103f460048036038101906103ef9190612f74565b61113c565b005b348015610401575f5ffd5b5061040a61119e565b6040516104179190612ccf565b60405180910390f35b34801561042b575f5ffd5b506104466004803603810190610441919061296f565b6111a7565b604051610453919061291c565b60405180910390f35b348015610467575f5ffd5b506104706112b1565b60405161047d9190612afe565b60405180910390f35b348015610491575f5ffd5b5061049a6113bf565b6040516104a79190612c75565b60405180910390f35b3480156104bb575f5ffd5b506104d660048036038101906104d19190612ff4565b611583565b6040516104e39190612893565b60405180910390f35b3480156104f7575f5ffd5b50610500611611565b60405161050d9190612ccf565b60405180910390f35b610530600480360381019061052b919061296f565b611621565b005b5f634906490660e01b7bffffffffffffffffffffffffffffffffffffffffffffffffffffffff1916827bffffffffffffffffffffffffffffffffffffffffffffffffffffffff1916148061058b575061058a826116ba565b5b9050919050565b60605f80546105a09061305f565b80601f01602080910402602001604051908101604052809291908181526020018280546105cc9061305f565b80156106175780601f106105ee57610100808354040283529160200191610617565b820191905f5260205f20905b8154815290600101906020018083116105fa57829003601f168201915b5050505050905090565b5f61062b8261179b565b60045f8381526020019081526020015f205f9054906101000a900473ffffffffffffffffffffffffffffffffffffffff169050919050565b5f61066d82610cbf565b90508073ffffffffffffffffffffffffffffffffffffffff168373ffffffffffffffffffffffffffffffffffffffff16036106dd576040517f08c379a00000000000000000000000000000000000000000000000000000000081526004016106d4906130ff565b60405180910390fd5b8073ffffffffffffffffffffffffffffffffffffffff166106fc6117e6565b73ffffffffffffffffffffffffffffffffffffffff16148061072b575061072a816107256117e6565b611583565b5b61076a576040517f08c379a00000000000000000000000000000000000000000000000000000000081526004016107619061318d565b60405180910390fd5b61077483836117ed565b505050565b610781612790565b600b5f8381526020019081526020015f206040518060a00160405290815f8201548152602001600182015f9054906101000a900473ffffffffffffffffffffffffffffffffffffffff1673ffffffffffffffffffffffffffffffffffffffff1673ffffffffffffffffffffffffffffffffffffffff168152602001600282015f9054906101000a900473ffffffffffffffffffffffffffffffffffffffff1673ffffffffffffffffffffffffffffffffffffffff1673ffffffffffffffffffffffffffffffffffffffff16815260200160038201548152602001600482015f9054906101000a900460ff1615151515815250509050919050565b61088c6108866117e6565b826118a3565b6108cb576040517f08c379a00000000000000000000000000000000000000000000000000000000081526004016108c29061321b565b60405180910390fd5b6108d6838383611937565b505050565b6108f583838360405180602001604052805f81525061113c565b505050565b60605f6109076008611c23565b90505f5f90505f5f90505f5f90505b83811015610a23573373ffffffffffffffffffffffffffffffffffffffff16600b5f6001846109459190613266565b81526020019081526020015f206001015f9054906101000a900473ffffffffffffffffffffffffffffffffffffffff1673ffffffffffffffffffffffffffffffffffffffff161480610a0157503373ffffffffffffffffffffffffffffffffffffffff16600b5f6001846109b99190613266565b81526020019081526020015f206002015f9054906101000a900473ffffffffffffffffffffffffffffffffffffffff1673ffffffffffffffffffffffffffffffffffffffff16145b15610a1657600183610a139190613266565b92505b8080600101915050610916565b505f8267ffffffffffffffff811115610a3f57610a3e612cf0565b5b604051908082528060200260200182016040528015610a7857816020015b610a65612790565b815260200190600190039081610a5d5790505b5090505f5f90505b84811015610cb4573373ffffffffffffffffffffffffffffffffffffffff16600b5f600184610aaf9190613266565b81526020019081526020015f206001015f9054906101000a900473ffffffffffffffffffffffffffffffffffffffff1673ffffffffffffffffffffffffffffffffffffffff161480610b6b57503373ffffffffffffffffffffffffffffffffffffffff16600b5f600184610b239190613266565b81526020019081526020015f206002015f9054906101000a900473ffffffffffffffffffffffffffffffffffffffff1673ffffffffffffffffffffffffffffffffffffffff16145b15610ca7575f600182610b7e9190613266565b90505f600b5f8381526020019081526020015f209050806040518060a00160405290815f8201548152602001600182015f9054906101000a900473ffffffffffffffffffffffffffffffffffffffff1673ffffffffffffffffffffffffffffffffffffffff1673ffffffffffffffffffffffffffffffffffffffff168152602001600282015f9054906101000a900473ffffffffffffffffffffffffffffffffffffffff1673ffffffffffffffffffffffffffffffffffffffff1673ffffffffffffffffffffffffffffffffffffffff16815260200160038201548152602001600482015f9054906101000a900460ff161515151581525050848681518110610c8a57610c89613299565b5b6020026020010181905250600185610ca29190613266565b945050505b8080600101915050610a80565b508094505050505090565b5f5f610cca83611c2f565b90505f73ffffffffffffffffffffffffffffffffffffffff168173ffffffffffffffffffffffffffffffffffffffff1603610d3a576040517f08c379a0000000000000000000000000000000000000000000000000000000008152600401610d3190613310565b60405180910390fd5b80915050919050565b5f5f73ffffffffffffffffffffffffffffffffffffffff168273ffffffffffffffffffffffffffffffffffffffff1603610db2576040517f08c379a0000000000000000000000000000000000000000000000000000000008152600401610da99061339e565b60405180910390fd5b60035f8373ffffffffffffffffffffffffffffffffffffffff1673ffffffffffffffffffffffffffffffffffffffff1681526020019081526020015f20549050919050565b5f600a543414610e3c576040517f08c379a0000000000000000000000000000000000000000000000000000000008152600401610e3390613406565b60405180910390fd5b5f8211610e7e576040517f08c379a0000000000000000000000000000000000000000000000000000000008152600401610e7590613494565b60405180910390fd5b610e886008611c68565b5f610e936008611c23565b9050610e9f3382611c7c565b610ea98185611c99565b610eb38184611d3b565b8091505092915050565b606060018054610ecc9061305f565b80601f0160208091040260200160405190810160405280929190818152602001828054610ef89061305f565b8015610f435780601f10610f1a57610100808354040283529160200191610f43565b820191905f5260205f20905b815481529060010190602001808311610f2657829003601f168201915b5050505050905090565b600b5f8281526020019081526020015f20600301543414610fa3576040517f08c379a0000000000000000000000000000000000000000000000000000000008152600401610f9a90613548565b60405180910390fd5b5f600b5f8381526020019081526020015f206002015f9054906101000a900473ffffffffffffffffffffffffffffffffffffffff1690506001600b5f8481526020019081526020015f206004015f6101000a81548160ff02191690831515021790555033600b5f8481526020019081526020015f206002015f6101000a81548173ffffffffffffffffffffffffffffffffffffffff021916908373ffffffffffffffffffffffffffffffffffffffff1602179055506110626009611c68565b61106d303384611937565b6110773083610663565b60075f9054906101000a900473ffffffffffffffffffffffffffffffffffffffff1673ffffffffffffffffffffffffffffffffffffffff166108fc600a5490811502906040515f60405180830381858888f193505050501580156110dd573d5f5f3e3d5ffd5b508073ffffffffffffffffffffffffffffffffffffffff166108fc3490811502906040515f60405180830381858888f19350505050158015611121573d5f5f3e3d5ffd5b505050565b6111386111316117e6565b8383611e71565b5050565b61114d6111476117e6565b836118a3565b61118c576040517f08c379a00000000000000000000000000000000000000000000000000000000081526004016111839061321b565b60405180910390fd5b61119884848484611fd8565b50505050565b5f600a54905090565b60606111b28261179b565b5f60065f8481526020019081526020015f2080546111cf9061305f565b80601f01602080910402602001604051908101604052809291908181526020018280546111fb9061305f565b80156112465780601f1061121d57610100808354040283529160200191611246565b820191905f5260205f20905b81548152906001019060200180831161122957829003601f168201915b505050505090505f611256612034565b90505f81510361126a5781925050506112ac565b5f8251111561129e5780826040516020016112869291906135a0565b604051602081830303815290604052925050506112ac565b6112a78461204a565b925050505b919050565b6112b9612790565b5f6112c46008611c23565b9050600b5f8281526020019081526020015f206040518060a00160405290815f8201548152602001600182015f9054906101000a900473ffffffffffffffffffffffffffffffffffffffff1673ffffffffffffffffffffffffffffffffffffffff1673ffffffffffffffffffffffffffffffffffffffff168152602001600282015f9054906101000a900473ffffffffffffffffffffffffffffffffffffffff1673ffffffffffffffffffffffffffffffffffffffff1673ffffffffffffffffffffffffffffffffffffffff16815260200160038201548152602001600482015f9054906101000a900460ff16151515158152505091505090565b60605f6113cc6008611c23565b90505f8167ffffffffffffffff8111156113e9576113e8612cf0565b5b60405190808252806020026020018201604052801561142257816020015b61140f612790565b8152602001906001900390816114075790505b5090505f5f90505f5f90505b83811015611579575f6001826114449190613266565b90505f600b5f8381526020019081526020015f209050806040518060a00160405290815f8201548152602001600182015f9054906101000a900473ffffffffffffffffffffffffffffffffffffffff1673ffffffffffffffffffffffffffffffffffffffff1673ffffffffffffffffffffffffffffffffffffffff168152602001600282015f9054906101000a900473ffffffffffffffffffffffffffffffffffffffff1673ffffffffffffffffffffffffffffffffffffffff1673ffffffffffffffffffffffffffffffffffffffff16815260200160038201548152602001600482015f9054906101000a900460ff1615151515815250508585815181106115505761154f613299565b5b60200260200101819052506001846115689190613266565b93505050808060010191505061142e565b5081935050505090565b5f60055f8473ffffffffffffffffffffffffffffffffffffffff1673ffffffffffffffffffffffffffffffffffffffff1681526020019081526020015f205f8373ffffffffffffffffffffffffffffffffffffffff1673ffffffffffffffffffffffffffffffffffffffff1681526020019081526020015f205f9054906101000a900460ff16905092915050565b5f61161c6008611c23565b905090565b3373ffffffffffffffffffffffffffffffffffffffff1660075f9054906101000a900473ffffffffffffffffffffffffffffffffffffffff1673ffffffffffffffffffffffffffffffffffffffff16146116b0576040517f08c379a00000000000000000000000000000000000000000000000000000000081526004016116a790613633565b60405180910390fd5b80600a8190555050565b5f7f80ac58cd000000000000000000000000000000000000000000000000000000007bffffffffffffffffffffffffffffffffffffffffffffffffffffffff1916827bffffffffffffffffffffffffffffffffffffffffffffffffffffffff1916148061178457507f5b5e139f000000000000000000000000000000000000000000000000000000007bffffffffffffffffffffffffffffffffffffffffffffffffffffffff1916827bffffffffffffffffffffffffffffffffffffffffffffffffffffffff1916145b806117945750611793826120af565b5b9050919050565b6117a481612118565b6117e3576040517f08c379a00000000000000000000000000000000000000000000000000000000081526004016117da90613310565b60405180910390fd5b50565b5f33905090565b8160045f8381526020019081526020015f205f6101000a81548173ffffffffffffffffffffffffffffffffffffffff021916908373ffffffffffffffffffffffffffffffffffffffff160217905550808273ffffffffffffffffffffffffffffffffffffffff1661185d83610cbf565b73ffffffffffffffffffffffffffffffffffffffff167f8c5be1e5ebec7d5bd14f71427d1e84f3dd0314c0f7b2291e5b200ac8c7c3b92560405160405180910390a45050565b5f5f6118ae83610cbf565b90508073ffffffffffffffffffffffffffffffffffffffff168473ffffffffffffffffffffffffffffffffffffffff1614806118f057506118ef8185611583565b5b8061192e57508373ffffffffffffffffffffffffffffffffffffffff1661191684610621565b73ffffffffffffffffffffffffffffffffffffffff16145b91505092915050565b8273ffffffffffffffffffffffffffffffffffffffff1661195782610cbf565b73ffffffffffffffffffffffffffffffffffffffff16146119ad576040517f08c379a00000000000000000000000000000000000000000000000000000000081526004016119a4906136c1565b60405180910390fd5b5f73ffffffffffffffffffffffffffffffffffffffff168273ffffffffffffffffffffffffffffffffffffffff1603611a1b576040517f08c379a0000000000000000000000000000000000000000000000000000000008152600401611a129061374f565b60405180910390fd5b611a288383836001612158565b8273ffffffffffffffffffffffffffffffffffffffff16611a4882610cbf565b73ffffffffffffffffffffffffffffffffffffffff1614611a9e576040517f08c379a0000000000000000000000000000000000000000000000000000000008152600401611a95906136c1565b60405180910390fd5b60045f8281526020019081526020015f205f6101000a81549073ffffffffffffffffffffffffffffffffffffffff0219169055600160035f8573ffffffffffffffffffffffffffffffffffffffff1673ffffffffffffffffffffffffffffffffffffffff1681526020019081526020015f205f8282540392505081905550600160035f8473ffffffffffffffffffffffffffffffffffffffff1673ffffffffffffffffffffffffffffffffffffffff1681526020019081526020015f205f82825401925050819055508160025f8381526020019081526020015f205f6101000a81548173ffffffffffffffffffffffffffffffffffffffff021916908373ffffffffffffffffffffffffffffffffffffffff160217905550808273ffffffffffffffffffffffffffffffffffffffff168473ffffffffffffffffffffffffffffffffffffffff167fddf252ad1be2c89b69c2b068fc378daa952ba7f163c4a11628f55a4df523b3ef60405160405180910390a4611c1e838383600161215e565b505050565b5f815f01549050919050565b5f60025f8381526020019081526020015f205f9054906101000a900473ffffffffffffffffffffffffffffffffffffffff169050919050565b6001815f015f828254019250508190555050565b611c95828260405180602001604052805f815250612164565b5050565b611ca282612118565b611ce1576040517f08c379a0000000000000000000000000000000000000000000000000000000008152600401611cd8906137dd565b60405180910390fd5b8060065f8481526020019081526020015f209081611cff919061399b565b507ff8e1a15aba9398e019f0b49df1a4fde98ee17ae345cb5f6b5e2c27f5033e8ce782604051611d2f9190612ccf565b60405180910390a15050565b6040518060a001604052808381526020013073ffffffffffffffffffffffffffffffffffffffff1681526020013373ffffffffffffffffffffffffffffffffffffffff16815260200182815260200160011515815250600b5f8481526020019081526020015f205f820151815f01556020820151816001015f6101000a81548173ffffffffffffffffffffffffffffffffffffffff021916908373ffffffffffffffffffffffffffffffffffffffff1602179055506040820151816002015f6101000a81548173ffffffffffffffffffffffffffffffffffffffff021916908373ffffffffffffffffffffffffffffffffffffffff160217905550606082015181600301556080820151816004015f6101000a81548160ff021916908315150217905550905050611e6d333084611937565b5050565b8173ffffffffffffffffffffffffffffffffffffffff168373ffffffffffffffffffffffffffffffffffffffff1603611edf576040517f08c379a0000000000000000000000000000000000000000000000000000000008152600401611ed690613ab4565b60405180910390fd5b8060055f8573ffffffffffffffffffffffffffffffffffffffff1673ffffffffffffffffffffffffffffffffffffffff1681526020019081526020015f205f8473ffffffffffffffffffffffffffffffffffffffff1673ffffffffffffffffffffffffffffffffffffffff1681526020019081526020015f205f6101000a81548160ff0219169083151502179055508173ffffffffffffffffffffffffffffffffffffffff168373ffffffffffffffffffffffffffffffffffffffff167f17307eab39ab6107e8899845ad3d59bd9653f200f220920489ca2b5937696c3183604051611fcb9190612893565b60405180910390a3505050565b611fe3848484611937565b611fef848484846121be565b61202e576040517f08c379a000000000000000000000000000000000000000000000000000000000815260040161202590613b42565b60405180910390fd5b50505050565b606060405180602001604052805f815250905090565b60606120558261179b565b5f61205e612034565b90505f81511161207c5760405180602001604052805f8152506120a7565b8061208684612340565b6040516020016120979291906135a0565b6040516020818303038152906040525b915050919050565b5f7f01ffc9a7000000000000000000000000000000000000000000000000000000007bffffffffffffffffffffffffffffffffffffffffffffffffffffffff1916827bffffffffffffffffffffffffffffffffffffffffffffffffffffffff1916149050919050565b5f5f73ffffffffffffffffffffffffffffffffffffffff1661213983611c2f565b73ffffffffffffffffffffffffffffffffffffffff1614159050919050565b50505050565b50505050565b61216e838361240a565b61217a5f8484846121be565b6121b9576040517f08c379a00000000000000000000000000000000000000000000000000000000081526004016121b090613b42565b60405180910390fd5b505050565b5f6121de8473ffffffffffffffffffffffffffffffffffffffff1661261d565b15612333578373ffffffffffffffffffffffffffffffffffffffff1663150b7a026122076117e6565b8786866040518563ffffffff1660e01b81526004016122299493929190613bb2565b6020604051808303815f875af192505050801561226457506040513d601f19601f820116820180604052508101906122619190613c10565b60015b6122e3573d805f8114612292576040519150601f19603f3d011682016040523d82523d5f602084013e612297565b606091505b505f8151036122db576040517f08c379a00000000000000000000000000000000000000000000000000000000081526004016122d290613b42565b60405180910390fd5b805181602001fd5b63150b7a0260e01b7bffffffffffffffffffffffffffffffffffffffffffffffffffffffff1916817bffffffffffffffffffffffffffffffffffffffffffffffffffffffff191614915050612338565b600190505b949350505050565b60605f600161234e8461263f565b0190505f8167ffffffffffffffff81111561236c5761236b612cf0565b5b6040519080825280601f01601f19166020018201604052801561239e5781602001600182028036833780820191505090505b5090505f82602001820190505b6001156123ff578080600190039150507f3031323334353637383961626364656600000000000000000000000000000000600a86061a8153600a85816123f4576123f3613c3b565b5b0494505f85036123ab575b819350505050919050565b5f73ffffffffffffffffffffffffffffffffffffffff168273ffffffffffffffffffffffffffffffffffffffff1603612478576040517f08c379a000000000000000000000000000000000000000000000000000000000815260040161246f90613cb2565b60405180910390fd5b61248181612118565b156124c1576040517f08c379a00000000000000000000000000000000000000000000000000000000081526004016124b890613d1a565b60405180910390fd5b6124ce5f83836001612158565b6124d781612118565b15612517576040517f08c379a000000000000000000000000000000000000000000000000000000000815260040161250e90613d1a565b60405180910390fd5b600160035f8473ffffffffffffffffffffffffffffffffffffffff1673ffffffffffffffffffffffffffffffffffffffff1681526020019081526020015f205f82825401925050819055508160025f8381526020019081526020015f205f6101000a81548173ffffffffffffffffffffffffffffffffffffffff021916908373ffffffffffffffffffffffffffffffffffffffff160217905550808273ffffffffffffffffffffffffffffffffffffffff165f73ffffffffffffffffffffffffffffffffffffffff167fddf252ad1be2c89b69c2b068fc378daa952ba7f163c4a11628f55a4df523b3ef60405160405180910390a46126195f8383600161215e565b5050565b5f5f8273ffffffffffffffffffffffffffffffffffffffff163b119050919050565b5f5f5f90507a184f03e93ff9f4daa797ed6e38ed64bf6a1f010000000000000000831061269b577a184f03e93ff9f4daa797ed6e38ed64bf6a1f010000000000000000838161269157612690613c3b565b5b0492506040810190505b6d04ee2d6d415b85acef810000000083106126d8576d04ee2d6d415b85acef810000000083816126ce576126cd613c3b565b5b0492506020810190505b662386f26fc10000831061270757662386f26fc1000083816126fd576126fc613c3b565b5b0492506010810190505b6305f5e1008310612730576305f5e100838161272657612725613c3b565b5b0492506008810190505b612710831061275557612710838161274b5761274a613c3b565b5b0492506004810190505b60648310612778576064838161276e5761276d613c3b565b5b0492506002810190505b600a8310612787576001810190505b80915050919050565b6040518060a001604052805f81526020015f73ffffffffffffffffffffffffffffffffffffffff1681526020015f73ffffffffffffffffffffffffffffffffffffffff1681526020015f81526020015f151581525090565b5f604051905090565b5f5ffd5b5f5ffd5b5f7fffffffff0000000000000000000000000000000000000000000000000000000082169050919050565b61282d816127f9565b8114612837575f5ffd5b50565b5f8135905061284881612824565b92915050565b5f60208284031215612863576128626127f1565b5b5f6128708482850161283a565b91505092915050565b5f8115159050919050565b61288d81612879565b82525050565b5f6020820190506128a65f830184612884565b92915050565b5f81519050919050565b5f82825260208201905092915050565b8281835e5f83830152505050565b5f601f19601f8301169050919050565b5f6128ee826128ac565b6128f881856128b6565b93506129088185602086016128c6565b612911816128d4565b840191505092915050565b5f6020820190508181035f83015261293481846128e4565b905092915050565b5f819050919050565b61294e8161293c565b8114612958575f5ffd5b50565b5f8135905061296981612945565b92915050565b5f60208284031215612984576129836127f1565b5b5f6129918482850161295b565b91505092915050565b5f73ffffffffffffffffffffffffffffffffffffffff82169050919050565b5f6129c38261299a565b9050919050565b6129d3816129b9565b82525050565b5f6020820190506129ec5f8301846129ca565b92915050565b6129fb816129b9565b8114612a05575f5ffd5b50565b5f81359050612a16816129f2565b92915050565b5f5f60408385031215612a3257612a316127f1565b5b5f612a3f85828601612a08565b9250506020612a508582860161295b565b9150509250929050565b612a638161293c565b82525050565b5f612a738261299a565b9050919050565b612a8381612a69565b82525050565b612a9281612879565b82525050565b60a082015f820151612aac5f850182612a5a565b506020820151612abf6020850182612a7a565b506040820151612ad26040850182612a7a565b506060820151612ae56060850182612a5a565b506080820151612af86080850182612a89565b50505050565b5f60a082019050612b115f830184612a98565b92915050565b5f5f5f60608486031215612b2e57612b2d6127f1565b5b5f612b3b86828701612a08565b9350506020612b4c86828701612a08565b9250506040612b5d8682870161295b565b9150509250925092565b5f81519050919050565b5f82825260208201905092915050565b5f819050602082019050919050565b60a082015f820151612ba45f850182612a5a565b506020820151612bb76020850182612a7a565b506040820151612bca6040850182612a7a565b506060820151612bdd6060850182612a5a565b506080820151612bf06080850182612a89565b50505050565b5f612c018383612b90565b60a08301905092915050565b5f602082019050919050565b5f612c2382612b67565b612c2d8185612b71565b9350612c3883612b81565b805f5b83811015612c68578151612c4f8882612bf6565b9750612c5a83612c0d565b925050600181019050612c3b565b5085935050505092915050565b5f6020820190508181035f830152612c8d8184612c19565b905092915050565b5f60208284031215612caa57612ca96127f1565b5b5f612cb784828501612a08565b91505092915050565b612cc98161293c565b82525050565b5f602082019050612ce25f830184612cc0565b92915050565b5f5ffd5b5f5ffd5b7f4e487b71000000000000000000000000000000000000000000000000000000005f52604160045260245ffd5b612d26826128d4565b810181811067ffffffffffffffff82111715612d4557612d44612cf0565b5b80604052505050565b5f612d576127e8565b9050612d638282612d1d565b919050565b5f67ffffffffffffffff821115612d8257612d81612cf0565b5b612d8b826128d4565b9050602081019050919050565b828183375f83830152505050565b5f612db8612db384612d68565b612d4e565b905082815260208101848484011115612dd457612dd3612cec565b5b612ddf848285612d98565b509392505050565b5f82601f830112612dfb57612dfa612ce8565b5b8135612e0b848260208601612da6565b91505092915050565b5f5f60408385031215612e2a57612e296127f1565b5b5f83013567ffffffffffffffff811115612e4757612e466127f5565b5b612e5385828601612de7565b9250506020612e648582860161295b565b9150509250929050565b612e7781612879565b8114612e81575f5ffd5b50565b5f81359050612e9281612e6e565b92915050565b5f5f60408385031215612eae57612ead6127f1565b5b5f612ebb85828601612a08565b9250506020612ecc85828601612e84565b9150509250929050565b5f67ffffffffffffffff821115612ef057612eef612cf0565b5b612ef9826128d4565b9050602081019050919050565b5f612f18612f1384612ed6565b612d4e565b905082815260208101848484011115612f3457612f33612cec565b5b612f3f848285612d98565b509392505050565b5f82601f830112612f5b57612f5a612ce8565b5b8135612f6b848260208601612f06565b91505092915050565b5f5f5f5f60808587031215612f8c57612f8b6127f1565b5b5f612f9987828801612a08565b9450506020612faa87828801612a08565b9350506040612fbb8782880161295b565b925050606085013567ffffffffffffffff811115612fdc57612fdb6127f5565b5b612fe887828801612f47565b91505092959194509250565b5f5f6040838503121561300a576130096127f1565b5b5f61301785828601612a08565b925050602061302885828601612a08565b9150509250929050565b7f4e487b71000000000000000000000000000000000000000000000000000000005f52602260045260245ffd5b5f600282049050600182168061307657607f821691505b60208210810361308957613088613032565b5b50919050565b7f4552433732313a20617070726f76616c20746f2063757272656e74206f776e655f8201527f7200000000000000000000000000000000000000000000000000000000000000602082015250565b5f6130e96021836128b6565b91506130f48261308f565b604082019050919050565b5f6020820190508181035f830152613116816130dd565b9050919050565b7f4552433732313a20617070726f76652063616c6c6572206973206e6f7420746f5f8201527f6b656e206f776e6572206f7220617070726f76656420666f7220616c6c000000602082015250565b5f613177603d836128b6565b91506131828261311d565b604082019050919050565b5f6020820190508181035f8301526131a48161316b565b9050919050565b7f4552433732313a2063616c6c6572206973206e6f7420746f6b656e206f776e655f8201527f72206f7220617070726f76656400000000000000000000000000000000000000602082015250565b5f613205602d836128b6565b9150613210826131ab565b604082019050919050565b5f6020820190508181035f830152613232816131f9565b9050919050565b7f4e487b71000000000000000000000000000000000000000000000000000000005f52601160045260245ffd5b5f6132708261293c565b915061327b8361293c565b925082820190508082111561329357613292613239565b5b92915050565b7f4e487b71000000000000000000000000000000000000000000000000000000005f52603260045260245ffd5b7f4552433732313a20696e76616c696420746f6b656e20494400000000000000005f82015250565b5f6132fa6018836128b6565b9150613305826132c6565b602082019050919050565b5f6020820190508181035f830152613327816132ee565b9050919050565b7f4552433732313a2061646472657373207a65726f206973206e6f7420612076615f8201527f6c6964206f776e65720000000000000000000000000000000000000000000000602082015250565b5f6133886029836128b6565b91506133938261332e565b604082019050919050565b5f6020820190508181035f8301526133b58161337c565b9050919050565b7f53656e6420656e6f75676820657468657220746f206c697374000000000000005f82015250565b5f6133f06019836128b6565b91506133fb826133bc565b602082019050919050565b5f6020820190508181035f83015261341d816133e4565b9050919050565b7f4d616b652073757265207468652070726963652069736e2774206e65676174695f8201527f7665000000000000000000000000000000000000000000000000000000000000602082015250565b5f61347e6022836128b6565b915061348982613424565b604082019050919050565b5f6020820190508181035f8301526134ab81613472565b9050919050565b7f416d6f756e742073686f756c64206265206571756976616c656e7420746f20745f8201527f68652061736b20707269636520696e206f7264657220746f207075726368617360208201527f6520746865204e46540000000000000000000000000000000000000000000000604082015250565b5f6135326049836128b6565b915061353d826134b2565b606082019050919050565b5f6020820190508181035f83015261355f81613526565b9050919050565b5f81905092915050565b5f61357a826128ac565b6135848185613566565b93506135948185602086016128c6565b80840191505092915050565b5f6135ab8285613570565b91506135b78284613570565b91508190509392505050565b7f4f6e6c79206f776e65722063616e2075706461746520746865206c697374696e5f8201527f6720707269636500000000000000000000000000000000000000000000000000602082015250565b5f61361d6027836128b6565b9150613628826135c3565b604082019050919050565b5f6020820190508181035f83015261364a81613611565b9050919050565b7f4552433732313a207472616e736665722066726f6d20696e636f7272656374205f8201527f6f776e6572000000000000000000000000000000000000000000000000000000602082015250565b5f6136ab6025836128b6565b91506136b682613651565b604082019050919050565b5f6020820190508181035f8301526136d88161369f565b9050919050565b7f4552433732313a207472616e7366657220746f20746865207a65726f206164645f8201527f7265737300000000000000000000000000000000000000000000000000000000602082015250565b5f6137396024836128b6565b9150613744826136df565b604082019050919050565b5f6020820190508181035f8301526137668161372d565b9050919050565b7f45524337323155524953746f726167653a2055524920736574206f66206e6f6e5f8201527f6578697374656e7420746f6b656e000000000000000000000000000000000000602082015250565b5f6137c7602e836128b6565b91506137d28261376d565b604082019050919050565b5f6020820190508181035f8301526137f4816137bb565b9050919050565b5f819050815f5260205f209050919050565b5f6020601f8301049050919050565b5f82821b905092915050565b5f600883026138577fffffffffffffffffffffffffffffffffffffffffffffffffffffffffffffffff8261381c565b613861868361381c565b95508019841693508086168417925050509392505050565b5f819050919050565b5f61389c6138976138928461293c565b613879565b61293c565b9050919050565b5f819050919050565b6138b583613882565b6138c96138c1826138a3565b848454613828565b825550505050565b5f5f905090565b6138e06138d1565b6138eb8184846138ac565b505050565b5b8181101561390e576139035f826138d8565b6001810190506138f1565b5050565b601f82111561395357613924816137fb565b61392d8461380d565b8101602085101561393c578190505b6139506139488561380d565b8301826138f0565b50505b505050565b5f82821c905092915050565b5f6139735f1984600802613958565b1980831691505092915050565b5f61398b8383613964565b9150826002028217905092915050565b6139a4826128ac565b67ffffffffffffffff8111156139bd576139bc612cf0565b5b6139c7825461305f565b6139d2828285613912565b5f60209050601f831160018114613a03575f84156139f1578287015190505b6139fb8582613980565b865550613a62565b601f198416613a11866137fb565b5f5b82811015613a3857848901518255600182019150602085019450602081019050613a13565b86831015613a555784890151613a51601f891682613964565b8355505b6001600288020188555050505b505050505050565b7f4552433732313a20617070726f766520746f2063616c6c6572000000000000005f82015250565b5f613a9e6019836128b6565b9150613aa982613a6a565b602082019050919050565b5f6020820190508181035f830152613acb81613a92565b9050919050565b7f4552433732313a207472616e7366657220746f206e6f6e2045524337323152655f8201527f63656976657220696d706c656d656e7465720000000000000000000000000000602082015250565b5f613b2c6032836128b6565b9150613b3782613ad2565b604082019050919050565b5f6020820190508181035f830152613b5981613b20565b9050919050565b5f81519050919050565b5f82825260208201905092915050565b5f613b8482613b60565b613b8e8185613b6a565b9350613b9e8185602086016128c6565b613ba7816128d4565b840191505092915050565b5f608082019050613bc55f8301876129ca565b613bd260208301866129ca565b613bdf6040830185612cc0565b8181036060830152613bf18184613b7a565b905095945050505050565b5f81519050613c0a81612824565b92915050565b5f60208284031215613c2557613c246127f1565b5b5f613c3284828501613bfc565b91505092915050565b7f4e487b71000000000000000000000000000000000000000000000000000000005f52601260045260245ffd5b7f4552433732313a206d696e7420746f20746865207a65726f20616464726573735f82015250565b5f613c9c6020836128b6565b9150613ca782613c68565b602082019050919050565b5f6020820190508181035f830152613cc981613c90565b9050919050565b7f4552433732313a20746f6b656e20616c7265616479206d696e746564000000005f82015250565b5f613d04601c836128b6565b9150613d0f82613cd0565b602082019050919050565b5f6020820190508181035f830152613d3181613cf8565b905091905056fea26469706673582212209eea7e20f3a5e4cf969d7d9659e3a893a27c686b8086c669ce4ba2ba10ba73d464736f6c634300081c0033","linkReferences":{}},"methodIdentifiers":{"approve(address,uint256)":"095ea7b3","balanceOf(address)":"70a08231","createToken(string,uint256)":"72b3b620","executeSale(uint256)":"9b1225c4","getAllNFTs()":"e0391b09","getApproved(uint256)":"081812fc","getCurrentToken()":"ef2d1746","getLatestIdToListedToken()":"d1a88ae5","getListingFee()":"b8fe6abe","getListingForToken(uint256)":"1ad2e0ad","getMyNFTs()":"629cb2e4","isApprovedForAll(address,address)":"e985e9c5","name()":"06fdde03","ownerOf(uint256)":"6352211e","safeTransferFrom(address,address,uint256)":"42842e0e","safeTransferFrom(address,address,uint256,bytes)":"b88d4fde","setApprovalForAll(address,bool)":"a22cb465","supportsInterface(bytes4)":"01ffc9a7","symbol()":"95d89b41","tokenURI(uint256)":"c87b56dd","transferFrom(address,address,uint256)":"23b872dd","updateListingFee(uint256)":"f79d91ae"},"id":31}