{"abi":[{"type":"constructor","inputs":[],"stateMutability":"nonpayable"},{"type":"function","name":"approve","inputs":[{"name":"to","type":"address","internalType":"address"},{"name":"tokenId","type":"uint256","internalType":"uint256"}],"outputs":[],"stateMutability":"nonpayable"},{"type":"function","name":"balanceOf","inputs":[{"name":"owner","type":"address","internalType":"address"}],"outputs":[{"name":"","type":"uint256","internalType":"uint256"}],"stateMutability":"view"},{"type":"function","name":"bid","inputs":[{"name":"tokenId","type":"uint256","internalType":"uint256"}],"outputs":[],"stateMutability":"payable"},{"type":"function","name":"createToken","inputs":[{"name":"tokenURI","type":"string","internalType":"string"},{"name":"price","type":"uint256","internalType":"uint256"},{"name":"target","type":"uint8","internalType":"enum NFTBidMarketplace.tokenType"},{"name":"minPrice","type":"uint256","internalType":"uint256"},{"name":"duration","type":"uint256","internalType":"uint256"}],"outputs":[{"name":"","type":"uint256","internalType":"uint256"}],"stateMutability":"payable"},{"type":"function","name":"endAuction","inputs":[{"name":"tokenId","type":"uint256","internalType":"uint256"}],"outputs":[],"stateMutability":"nonpayable"},{"type":"function","name":"executeSale","inputs":[{"name":"tokenId","type":"uint256","internalType":"uint256"}],"outputs":[],"stateMutability":"payable"},{"type":"function","name":"getAllAuctions","inputs":[],"outputs":[{"name":"","type":"tuple[]","internalType":"struct NFTBidMarketplace.AuctionListedToken[]","components":[{"name":"tokenId","type":"uint256","internalType":"uint256"},{"name":"owner","type":"address","internalType":"address payable"},{"name":"seller","type":"address","internalType":"address payable"},{"name":"minPrice","type":"uint256","internalType":"uint256"},{"name":"highestBidder","type":"address","internalType":"address payable"},{"name":"highestBid","type":"uint256","internalType":"uint256"},{"name":"duration","type":"uint256","internalType":"uint256"},{"name":"started","type":"bool","internalType":"bool"},{"name":"ended","type":"bool","internalType":"bool"}]}],"stateMutability":"view"},{"type":"function","name":"getAllNFTs","inputs":[],"outputs":[{"name":"","type":"tuple[]","internalType":"struct NFTBidMarketplace.ListedToken[]","components":[{"name":"tokenId","type":"uint256","internalType":"uint256"},{"name":"owner","type":"address","internalType":"address payable"},{"name":"seller","type":"address","internalType":"address payable"},{"name":"price","type":"uint256","internalType":"uint256"},{"name":"currentlyListed","type":"bool","internalType":"bool"}]}],"stateMutability":"view"},{"type":"function","name":"getApproved","inputs":[{"name":"tokenId","type":"uint256","internalType":"uint256"}],"outputs":[{"name":"","type":"address","internalType":"address"}],"stateMutability":"view"},{"type":"function","name":"getAuctionDetails","inputs":[{"name":"tokenId","type":"uint256","internalType":"uint256"}],"outputs":[{"name":"","type":"tuple","internalType":"struct NFTBidMarketplace.AuctionListedToken","components":[{"name":"tokenId","type":"uint256","internalType":"uint256"},{"name":"owner","type":"address","internalType":"address payable"},{"name":"seller","type":"address","internalType":"address payable"},{"name":"minPrice","type":"uint256","internalType":"uint256"},{"name":"highestBidder","type":"address","internalType":"address payable"},{"name":"highestBid","type":"uint256","internalType":"uint256"},{"name":"duration","type":"uint256","internalType":"uint256"},{"name":"started","type":"bool","internalType":"bool"},{"name":"ended","type":"bool","internalType":"bool"}]}],"stateMutability":"view"},{"type":"function","name":"getAuctionFee","inputs":[],"outputs":[{"name":"","type":"uint256","internalType":"uint256"}],"stateMutability":"view"},{"type":"function","name":"getCurrentToken","inputs":[],"outputs":[{"name":"","type":"uint256","internalType":"uint256"}],"stateMutability":"view"},{"type":"function","name":"getLatestIdToListedToken","inputs":[],"outputs":[{"name":"","type":"tuple","internalType":"struct NFTBidMarketplace.ListedToken","components":[{"name":"tokenId","type":"uint256","internalType":"uint256"},{"name":"owner","type":"address","internalType":"address payable"},{"name":"seller","type":"address","internalType":"address payable"},{"name":"price","type":"uint256","internalType":"uint256"},{"name":"currentlyListed","type":"bool","internalType":"bool"}]}],"stateMutability":"view"},{"type":"function","name":"getListingFee","inputs":[],"outputs":[{"name":"","type":"uint256","internalType":"uint256"}],"stateMutability":"view"},{"type":"function","name":"getListingForToken","inputs":[{"name":"tokenId","type":"uint256","internalType":"uint256"}],"outputs":[{"name":"","type":"tuple","internalType":"struct NFTBidMarketplace.ListedToken","components":[{"name":"tokenId","type":"uint256","internalType":"uint256"},{"name":"owner","type":"address","internalType":"address payable"},{"name":"seller","type":"address","internalType":"address payable"},{"name":"price","type":"uint256","internalType":"uint256"},{"name":"currentlyListed","type":"bool","internalType":"bool"}]}],"stateMutability":"view"},{"type":"function","name":"getMyNFTs","inputs":[],"outputs":[{"name":"marketplaceNFTs","type":"tuple[]","internalType":"struct NFTBidMarketplace.ListedToken[]","components":[{"name":"tokenId","type":"uint256","internalType":"uint256"},{"name":"owner","type":"address","internalType":"address payable"},{"name":"seller","type":"address","internalType":"address payable"},{"name":"price","type":"uint256","internalType":"uint256"},{"name":"currentlyListed","type":"bool","internalType":"bool"}]},{"name":"auctionNFTs","type":"tuple[]","internalType":"struct NFTBidMarketplace.AuctionListedToken[]","components":[{"name":"tokenId","type":"uint256","internalType":"uint256"},{"name":"owner","type":"address","internalType":"address payable"},{"name":"seller","type":"address","internalType":"address payable"},{"name":"minPrice","type":"uint256","internalType":"uint256"},{"name":"highestBidder","type":"address","internalType":"address payable"},{"name":"highestBid","type":"uint256","internalType":"uint256"},{"name":"duration","type":"uint256","internalType":"uint256"},{"name":"started","type":"bool","internalType":"bool"},{"name":"ended","type":"bool","internalType":"bool"}]}],"stateMutability":"view"},{"type":"function","name":"isApprovedForAll","inputs":[{"name":"owner","type":"address","internalType":"address"},{"name":"operator","type":"address","internalType":"address"}],"outputs":[{"name":"","type":"bool","internalType":"bool"}],"stateMutability":"view"},{"type":"function","name":"name","inputs":[],"outputs":[{"name":"","type":"string","internalType":"string"}],"stateMutability":"view"},{"type":"function","name":"ownerOf","inputs":[{"name":"tokenId","type":"uint256","internalType":"uint256"}],"outputs":[{"name":"","type":"address","internalType":"address"}],"stateMutability":"view"},{"type":"function","name":"safeTransferFrom","inputs":[{"name":"from","type":"address","internalType":"address"},{"name":"to","type":"address","internalType":"address"},{"name":"tokenId","type":"uint256","internalType":"uint256"}],"outputs":[],"stateMutability":"nonpayable"},{"type":"function","name":"safeTransferFrom","inputs":[{"name":"from","type":"address","internalType":"address"},{"name":"to","type":"address","internalType":"address"},{"name":"tokenId","type":"uint256","internalType":"uint256"},{"name":"data","type":"bytes","internalType":"bytes"}],"outputs":[],"stateMutability":"nonpayable"},{"type":"function","name":"setApprovalForAll","inputs":[{"name":"operator","type":"address","internalType":"address"},{"name":"approved","type":"bool","internalType":"bool"}],"outputs":[],"stateMutability":"nonpayable"},{"type":"function","name":"startAuction","inputs":[{"name":"tokenId","type":"uint256","internalType":"uint256"},{"name":"minPrice","type":"uint256","internalType":"uint256"},{"name":"duration","type":"uint256","internalType":"uint256"}],"outputs":[],"stateMutability":"nonpayable"},{"type":"function","name":"supportsInterface","inputs":[{"name":"interfaceId","type":"bytes4","internalType":"bytes4"}],"outputs":[{"name":"","type":"bool","internalType":"bool"}],"stateMutability":"view"},{"type":"function","name":"symbol","inputs":[],"outputs":[{"name":"","type":"string","internalType":"string"}],"stateMutability":"view"},{"type":"function","name":"tokenURI","inputs":[{"name":"tokenId","type":"uint256","internalType":"uint256"}],"outputs":[{"name":"","type":"string","internalType":"string"}],"stateMutability":"view"},{"type":"function","name":"transferFrom","inputs":[{"name":"from","type":"address","internalType":"address"},{"name":"to","type":"address","internalType":"address"},{"name":"tokenId","type":"uint256","internalType":"uint256"}],"outputs":[],"stateMutability":"nonpayable"},{"type":"function","name":"updateListingFee","inputs":[{"name":"_newFee","type":"uint256","internalType":"uint256"}],"outputs":[],"stateMutability":"payable"},{"type":"function","name":"withdraw","inputs":[{"name":"tokenId","type":"uint256","internalType":"uint256"}],"outputs":[],"stateMutability":"nonpayable"},{"type":"event","name":"Approval","inputs":[{"name":"owner","type":"address","indexed":true,"internalType":"address"},{"name":"approved","type":"address","indexed":true,"internalType":"address"},{"name":"tokenId","type":"uint256","indexed":true,"internalType":"uint256"}],"anonymous":false},{"type":"event","name":"ApprovalForAll","inputs":[{"name":"owner","type":"address","indexed":true,"internalType":"address"},{"name":"operator","type":"address","indexed":true,"internalType":"address"},{"name":"approved","type":"bool","indexed":false,"internalType":"bool"}],"anonymous":false},{"type":"event","name":"BatchMetadataUpdate","inputs":[{"name":"_fromTokenId","type":"uint256","indexed":false,"internalType":"uint256"},{"name":"_toTokenId","type":"uint256","indexed":false,"internalType":"uint256"}],"anonymous":false},{"type":"event","name":"BidPlaced","inputs":[{"name":"tokenId","type":"uint256","indexed":true,"internalType":"uint256"},{"name":"bidder","type":"address","indexed":true,"internalType":"address"},{"name":"bidAmount","type":"uint256","indexed":false,"internalType":"uint256"}],"anonymous":false},{"type":"event","name":"EndAuction","inputs":[{"name":"tokenId","type":"uint256","indexed":true,"internalType":"uint256"},{"name":"highestBidder","type":"address","indexed":true,"internalType":"address"},{"name":"highestBid","type":"uint256","indexed":false,"internalType":"uint256"}],"anonymous":false},{"type":"event","name":"MetadataUpdate","inputs":[{"name":"_tokenId","type":"uint256","indexed":false,"internalType":"uint256"}],"anonymous":false},{"type":"event","name":"StartAuction","inputs":[{"name":"tokenId","type":"uint256","indexed":true,"internalType":"uint256"},{"name":"minPrice","type":"uint256","indexed":false,"internalType":"uint256"},{"name":"duration","type":"uint256","indexed":false,"internalType":"uint256"}],"anonymous":false},{"type":"event","name":"Transfer","inputs":[{"name":"from","type":"address","indexed":true,"internalType":"address"},{"name":"to","type":"address","indexed":true,"internalType":"address"},{"name":"tokenId","type":"uint256","indexed":true,"internalType":"uint256"}],"anonymous":false},{"type":"event","name":"Withdraw","inputs":[{"name":"tokenId","type":"uint256","indexed":true,"internalType":"uint256"},{"name":"bidder","type":"address","indexed":true,"internalType":"address"},{"name":"amount","type":"uint256","indexed":false,"internalType":"uint256"}],"anonymous":false}],"bytecode":{"object":"0x6080604052662386f26fc10000600a55666a94d74f430000600b55348015610025575f5ffd5b506040518060400160405280600681526020017f42696473656100000000000000000000000000000000000000000000000000008152506040518060400160405280600281526020017f4253000000000000000000000000000000000000000000000000000000000000815250815f90816100a09190610335565b5080600190816100b09190610335565b5050503360075f6101000a81548173ffffffffffffffffffffffffffffffffffffffff021916908373ffffffffffffffffffffffffffffffffffffffff160217905550610404565b5f81519050919050565b7f4e487b71000000000000000000000000000000000000000000000000000000005f52604160045260245ffd5b7f4e487b71000000000000000000000000000000000000000000000000000000005f52602260045260245ffd5b5f600282049050600182168061017357607f821691505b6020821081036101865761018561012f565b5b50919050565b5f819050815f5260205f209050919050565b5f6020601f8301049050919050565b5f82821b905092915050565b5f600883026101e87fffffffffffffffffffffffffffffffffffffffffffffffffffffffffffffffff826101ad565b6101f286836101ad565b95508019841693508086168417925050509392505050565b5f819050919050565b5f819050919050565b5f61023661023161022c8461020a565b610213565b61020a565b9050919050565b5f819050919050565b61024f8361021c565b61026361025b8261023d565b8484546101b9565b825550505050565b5f5f905090565b61027a61026b565b610285818484610246565b505050565b5b818110156102a85761029d5f82610272565b60018101905061028b565b5050565b601f8211156102ed576102be8161018c565b6102c78461019e565b810160208510156102d6578190505b6102ea6102e28561019e565b83018261028a565b50505b505050565b5f82821c905092915050565b5f61030d5f19846008026102f2565b1980831691505092915050565b5f61032583836102fe565b9150826002028217905092915050565b61033e826100f8565b67ffffffffffffffff81111561035757610356610102565b5b610361825461015c565b61036c8282856102ac565b5f60209050601f83116001811461039d575f841561038b578287015190505b610395858261031a565b8655506103fc565b601f1984166103ab8661018c565b5f5b828110156103d2578489015182556001820191506020850194506020810190506103ad565b868310156103ef57848901516103eb601f8916826102fe565b8355505b6001600288020188555050505b505050505050565b615ecf806104115f395ff3fe6080604052600436106101c1575f3560e01c806395d89b41116100f6578063cbd2bdfd11610094578063ee7ec25511610063578063ee7ec25514610632578063ef2d174614610662578063f20e5e351461068c578063f79d91ae146106c8576101c1565b8063cbd2bdfd14610578578063d1a88ae5146105a2578063e0391b09146105cc578063e985e9c5146105f6576101c1565b8063b88d4fde116100d0578063b88d4fde146104c2578063b8fe6abe146104ea578063b9a2de3a14610514578063c87b56dd1461053c576101c1565b806395d89b41146104545780639b1225c41461047e578063a22cb4651461049a576101c1565b80632e1a7d4d11610163578063629cb2e41161013d578063629cb2e4146103895780636352211e146103b457806370a08231146103f057806391e078bb1461042c576101c1565b80632e1a7d4d1461031d57806342842e0e14610345578063454a2ab31461036d576101c1565b8063095ea7b31161019f578063095ea7b3146102675780631031ca441461028f5780631ad2e0ad146102b957806323b872dd146102f5576101c1565b806301ffc9a7146101c557806306fdde0314610201578063081812fc1461022b575b5f5ffd5b3480156101d0575f5ffd5b506101eb60048036038101906101e69190614123565b6106e4565b6040516101f89190614168565b60405180910390f35b34801561020c575f5ffd5b50610215610744565b60405161022291906141f1565b60405180910390f35b348015610236575f5ffd5b50610251600480360381019061024c9190614244565b6107d3565b60405161025e91906142ae565b60405180910390f35b348015610272575f5ffd5b5061028d600480360381019061028891906142f1565b610815565b005b34801561029a575f5ffd5b506102a361092b565b6040516102b0919061433e565b60405180910390f35b3480156102c4575f5ffd5b506102df60048036038101906102da9190614244565b610934565b6040516102ec91906143fb565b60405180910390f35b348015610300575f5ffd5b5061031b60048036038101906103169190614414565b610a36565b005b348015610328575f5ffd5b50610343600480360381019061033e9190614244565b610a96565b005b348015610350575f5ffd5b5061036b60048036038101906103669190614414565b610cf3565b005b61038760048036038101906103829190614244565b610d12565b005b348015610394575f5ffd5b5061039d610f62565b6040516103ab9291906146d0565b60405180910390f35b3480156103bf575f5ffd5b506103da60048036038101906103d59190614244565b6117d3565b6040516103e791906142ae565b60405180910390f35b3480156103fb575f5ffd5b5061041660048036038101906104119190614705565b611857565b604051610423919061433e565b60405180910390f35b348015610437575f5ffd5b50610452600480360381019061044d9190614730565b61190b565b005b34801561045f575f5ffd5b50610468611b52565b60405161047591906141f1565b60405180910390f35b61049860048036038101906104939190614244565b611be2565b005b3480156104a5575f5ffd5b506104c060048036038101906104bb91906147aa565b611dba565b005b3480156104cd575f5ffd5b506104e860048036038101906104e39190614914565b611dd0565b005b3480156104f5575f5ffd5b506104fe611e32565b60405161050b919061433e565b60405180910390f35b34801561051f575f5ffd5b5061053a60048036038101906105359190614244565b611e3b565b005b348015610547575f5ffd5b50610562600480360381019061055d9190614244565b612157565b60405161056f91906141f1565b60405180910390f35b348015610583575f5ffd5b5061058c612261565b6040516105999190614994565b60405180910390f35b3480156105ad575f5ffd5b506105b6612541565b6040516105c391906143fb565b60405180910390f35b3480156105d7575f5ffd5b506105e061264f565b6040516105ed91906149b4565b60405180910390f35b348015610601575f5ffd5b5061061c600480360381019061061791906149d4565b6128a6565b6040516106299190614168565b60405180910390f35b61064c60048036038101906106479190614ad3565b612934565b604051610659919061433e565b60405180910390f35b34801561066d575f5ffd5b50610676612af4565b604051610683919061433e565b60405180910390f35b348015610697575f5ffd5b506106b260048036038101906106ad9190614244565b612b04565b6040516106bf9190614c1b565b60405180910390f35b6106e260048036038101906106dd9190614244565b612c8b565b005b5f634906490660e01b7bffffffffffffffffffffffffffffffffffffffffffffffffffffffff1916827bffffffffffffffffffffffffffffffffffffffffffffffffffffffff1916148061073d575061073c82612d24565b5b9050919050565b60605f805461075290614c62565b80601f016020809104026020016040519081016040528092919081815260200182805461077e90614c62565b80156107c95780601f106107a0576101008083540402835291602001916107c9565b820191905f5260205f20905b8154815290600101906020018083116107ac57829003601f168201915b5050505050905090565b5f6107dd82612e05565b60045f8381526020019081526020015f205f9054906101000a900473ffffffffffffffffffffffffffffffffffffffff169050919050565b5f61081f826117d3565b90508073ffffffffffffffffffffffffffffffffffffffff168373ffffffffffffffffffffffffffffffffffffffff160361088f576040517f08c379a000000000000000000000000000000000000000000000000000000000815260040161088690614d02565b60405180910390fd5b8073ffffffffffffffffffffffffffffffffffffffff166108ae612e50565b73ffffffffffffffffffffffffffffffffffffffff1614806108dd57506108dc816108d7612e50565b6128a6565b5b61091c576040517f08c379a000000000000000000000000000000000000000000000000000000000815260040161091390614d90565b60405180910390fd5b6109268383612e57565b505050565b5f600b54905090565b61093c613fdc565b600c5f8381526020019081526020015f206040518060a00160405290815f8201548152602001600182015f9054906101000a900473ffffffffffffffffffffffffffffffffffffffff1673ffffffffffffffffffffffffffffffffffffffff1673ffffffffffffffffffffffffffffffffffffffff168152602001600282015f9054906101000a900473ffffffffffffffffffffffffffffffffffffffff1673ffffffffffffffffffffffffffffffffffffffff1673ffffffffffffffffffffffffffffffffffffffff16815260200160038201548152602001600482015f9054906101000a900460ff1615151515815250509050919050565b610a47610a41612e50565b82612f0d565b610a86576040517f08c379a0000000000000000000000000000000000000000000000000000000008152600401610a7d90614e1e565b60405180910390fd5b610a91838383612fa1565b505050565b5f600d5f8381526020019081526020015f2090505f5f90505f73ffffffffffffffffffffffffffffffffffffffff16826004015f9054906101000a900473ffffffffffffffffffffffffffffffffffffffff1673ffffffffffffffffffffffffffffffffffffffff1614158015610b5c57503373ffffffffffffffffffffffffffffffffffffffff16826004015f9054906101000a900473ffffffffffffffffffffffffffffffffffffffff1673ffffffffffffffffffffffffffffffffffffffff1614155b15610bb457816005015490505f82600501819055505f826004015f6101000a81548173ffffffffffffffffffffffffffffffffffffffff021916908373ffffffffffffffffffffffffffffffffffffffff1602179055505b5f8111610bf6576040517f08c379a0000000000000000000000000000000000000000000000000000000008152600401610bed90614e86565b60405180910390fd5b5f3373ffffffffffffffffffffffffffffffffffffffff1682604051610c1b90614ed1565b5f6040518083038185875af1925050503d805f8114610c55576040519150601f19603f3d011682016040523d82523d5f602084013e610c5a565b606091505b5050905080610c9e576040517f08c379a0000000000000000000000000000000000000000000000000000000008152600401610c9590614f2f565b60405180910390fd5b3373ffffffffffffffffffffffffffffffffffffffff16847f9da6493a92039daf47d1f2d7a782299c5994c6323eb1e972f69c432089ec52bf84604051610ce5919061433e565b60405180910390a350505050565b610d0d83838360405180602001604052805f815250611dd0565b505050565b5f600d5f8381526020019081526020015f209050806007015f9054906101000a900460ff16610d76576040517f08c379a0000000000000000000000000000000000000000000000000000000008152600401610d6d90614f97565b60405180910390fd5b80600601544210610dbc576040517f08c379a0000000000000000000000000000000000000000000000000000000008152600401610db390614fff565b60405180910390fd5b80600501543411610e02576040517f08c379a0000000000000000000000000000000000000000000000000000000008152600401610df99061508d565b60405180910390fd5b5f73ffffffffffffffffffffffffffffffffffffffff16816004015f9054906101000a900473ffffffffffffffffffffffffffffffffffffffff1673ffffffffffffffffffffffffffffffffffffffff1614610ec457806004015f9054906101000a900473ffffffffffffffffffffffffffffffffffffffff1673ffffffffffffffffffffffffffffffffffffffff166108fc826005015490811502906040515f60405180830381858888f19350505050158015610ec2573d5f5f3e3d5ffd5b505b34816005018190555033816004015f6101000a81548173ffffffffffffffffffffffffffffffffffffffff021916908373ffffffffffffffffffffffffffffffffffffffff1602179055503373ffffffffffffffffffffffffffffffffffffffff16827f0e54eff26401bf69b81b26f60bd85ef47f5d85275c1d268d84f68d6897431c4734604051610f56919061433e565b60405180910390a35050565b6060805f610f70600861328d565b90505f5f90505f5f90505f5f90505b83811015611323575f600c5f600184610f9891906150d8565b81526020019081526020015f206040518060a00160405290815f8201548152602001600182015f9054906101000a900473ffffffffffffffffffffffffffffffffffffffff1673ffffffffffffffffffffffffffffffffffffffff1673ffffffffffffffffffffffffffffffffffffffff168152602001600282015f9054906101000a900473ffffffffffffffffffffffffffffffffffffffff1673ffffffffffffffffffffffffffffffffffffffff1673ffffffffffffffffffffffffffffffffffffffff16815260200160038201548152602001600482015f9054906101000a900460ff16151515158152505090505f600d5f60018561109a91906150d8565b81526020019081526020015f20604051806101200160405290815f8201548152602001600182015f9054906101000a900473ffffffffffffffffffffffffffffffffffffffff1673ffffffffffffffffffffffffffffffffffffffff1673ffffffffffffffffffffffffffffffffffffffff168152602001600282015f9054906101000a900473ffffffffffffffffffffffffffffffffffffffff1673ffffffffffffffffffffffffffffffffffffffff1673ffffffffffffffffffffffffffffffffffffffff16815260200160038201548152602001600482015f9054906101000a900473ffffffffffffffffffffffffffffffffffffffff1673ffffffffffffffffffffffffffffffffffffffff1673ffffffffffffffffffffffffffffffffffffffff1681526020016005820154815260200160068201548152602001600782015f9054906101000a900460ff161515151581526020016007820160019054906101000a900460ff16151515158152505090503373ffffffffffffffffffffffffffffffffffffffff16826020015173ffffffffffffffffffffffffffffffffffffffff16148061127d57503373ffffffffffffffffffffffffffffffffffffffff16826040015173ffffffffffffffffffffffffffffffffffffffff16145b156112925760018561128f91906150d8565b94505b3373ffffffffffffffffffffffffffffffffffffffff16816080015173ffffffffffffffffffffffffffffffffffffffff1614806112ff57503373ffffffffffffffffffffffffffffffffffffffff16816040015173ffffffffffffffffffffffffffffffffffffffff16145b156113145760018461131191906150d8565b93505b50508080600101915050610f7f565b505f8267ffffffffffffffff81111561133f5761133e6147f0565b5b60405190808252806020026020018201604052801561137857816020015b611365613fdc565b81526020019060019003908161135d5790505b5090505f8267ffffffffffffffff811115611396576113956147f0565b5b6040519080825280602002602001820160405280156113cf57816020015b6113bc614034565b8152602001906001900390816113b45790505b5090505f5f90505f5f90505f5f90505b878110156117c1575f600c5f6001846113f891906150d8565b81526020019081526020015f206040518060a00160405290815f8201548152602001600182015f9054906101000a900473ffffffffffffffffffffffffffffffffffffffff1673ffffffffffffffffffffffffffffffffffffffff1673ffffffffffffffffffffffffffffffffffffffff168152602001600282015f9054906101000a900473ffffffffffffffffffffffffffffffffffffffff1673ffffffffffffffffffffffffffffffffffffffff1673ffffffffffffffffffffffffffffffffffffffff16815260200160038201548152602001600482015f9054906101000a900460ff16151515158152505090505f600d5f6001856114fa91906150d8565b81526020019081526020015f20604051806101200160405290815f8201548152602001600182015f9054906101000a900473ffffffffffffffffffffffffffffffffffffffff1673ffffffffffffffffffffffffffffffffffffffff1673ffffffffffffffffffffffffffffffffffffffff168152602001600282015f9054906101000a900473ffffffffffffffffffffffffffffffffffffffff1673ffffffffffffffffffffffffffffffffffffffff1673ffffffffffffffffffffffffffffffffffffffff16815260200160038201548152602001600482015f9054906101000a900473ffffffffffffffffffffffffffffffffffffffff1673ffffffffffffffffffffffffffffffffffffffff1673ffffffffffffffffffffffffffffffffffffffff1681526020016005820154815260200160068201548152602001600782015f9054906101000a900460ff161515151581526020016007820160019054906101000a900460ff16151515158152505090503373ffffffffffffffffffffffffffffffffffffffff16826020015173ffffffffffffffffffffffffffffffffffffffff1614806116dd57503373ffffffffffffffffffffffffffffffffffffffff16826040015173ffffffffffffffffffffffffffffffffffffffff16145b1561171157818786815181106116f6576116f561510b565b5b602002602001018190525060018561170e91906150d8565b94505b3373ffffffffffffffffffffffffffffffffffffffff16816080015173ffffffffffffffffffffffffffffffffffffffff16148061177e57503373ffffffffffffffffffffffffffffffffffffffff16816040015173ffffffffffffffffffffffffffffffffffffffff16145b156117b257808685815181106117975761179661510b565b5b60200260200101819052506001846117af91906150d8565b93505b505080806001019150506113df565b50838398509850505050505050509091565b5f5f6117de83613299565b90505f73ffffffffffffffffffffffffffffffffffffffff168173ffffffffffffffffffffffffffffffffffffffff160361184e576040517f08c379a000000000000000000000000000000000000000000000000000000000815260040161184590615182565b60405180910390fd5b80915050919050565b5f5f73ffffffffffffffffffffffffffffffffffffffff168273ffffffffffffffffffffffffffffffffffffffff16036118c6576040517f08c379a00000000000000000000000000000000000000000000000000000000081526004016118bd90615210565b60405180910390fd5b60035f8373ffffffffffffffffffffffffffffffffffffffff1673ffffffffffffffffffffffffffffffffffffffff1681526020019081526020015f20549050919050565b5f600d5f8581526020019081526020015f2090503373ffffffffffffffffffffffffffffffffffffffff16816002015f9054906101000a900473ffffffffffffffffffffffffffffffffffffffff1673ffffffffffffffffffffffffffffffffffffffff16146119b0576040517f08c379a00000000000000000000000000000000000000000000000000000000081526004016119a79061529e565b60405180910390fd5b806007015f9054906101000a900460ff1615611a01576040517f08c379a00000000000000000000000000000000000000000000000000000000081526004016119f890615306565b60405180910390fd5b6001816007015f6101000a81548160ff0219169083151502179055508281600301819055508181600601819055508281600501819055505f816004015f6101000a81548173ffffffffffffffffffffffffffffffffffffffff021916908373ffffffffffffffffffffffffffffffffffffffff16021790555030816001015f6101000a81548173ffffffffffffffffffffffffffffffffffffffff021916908373ffffffffffffffffffffffffffffffffffffffff16021790555033816002015f6101000a81548173ffffffffffffffffffffffffffffffffffffffff021916908373ffffffffffffffffffffffffffffffffffffffff1602179055508142611b0a91906150d8565b8160060181905550837f683d0f47c7fa11331f4e9563b3f5a7fdc3d3c5b75c600357a91d991f5a13a4378484604051611b44929190615324565b60405180910390a250505050565b606060018054611b6190614c62565b80601f0160208091040260200160405190810160405280929190818152602001828054611b8d90614c62565b8015611bd85780601f10611baf57610100808354040283529160200191611bd8565b820191905f5260205f20905b815481529060010190602001808311611bbb57829003601f168201915b5050505050905090565b600c5f8281526020019081526020015f20600301543414611c38576040517f08c379a0000000000000000000000000000000000000000000000000000000008152600401611c2f906153e1565b60405180910390fd5b5f600c5f8381526020019081526020015f206002015f9054906101000a900473ffffffffffffffffffffffffffffffffffffffff1690505f600c5f8481526020019081526020015f206004015f6101000a81548160ff02191690831515021790555033600c5f8481526020019081526020015f206002015f6101000a81548173ffffffffffffffffffffffffffffffffffffffff021916908373ffffffffffffffffffffffffffffffffffffffff160217905550611cf660096132d2565b611d01303384612fa1565b611d0b3083610815565b60075f9054906101000a900473ffffffffffffffffffffffffffffffffffffffff1673ffffffffffffffffffffffffffffffffffffffff166108fc600a5490811502906040515f60405180830381858888f19350505050158015611d71573d5f5f3e3d5ffd5b508073ffffffffffffffffffffffffffffffffffffffff166108fc3490811502906040515f60405180830381858888f19350505050158015611db5573d5f5f3e3d5ffd5b505050565b611dcc611dc5612e50565b83836132e6565b5050565b611de1611ddb612e50565b83612f0d565b611e20576040517f08c379a0000000000000000000000000000000000000000000000000000000008152600401611e1790614e1e565b60405180910390fd5b611e2c8484848461344d565b50505050565b5f600a54905090565b5f600d5f8381526020019081526020015f209050806007015f9054906101000a900460ff16611e9f576040517f08c379a0000000000000000000000000000000000000000000000000000000008152600401611e9690614f97565b60405180910390fd5b8060060154421015611ee6576040517f08c379a0000000000000000000000000000000000000000000000000000000008152600401611edd90615449565b60405180910390fd5b8060070160019054906101000a900460ff1615611f38576040517f08c379a0000000000000000000000000000000000000000000000000000000008152600401611f2f906154b1565b60405180910390fd5b60018160070160016101000a81548160ff0219169083151502179055505f73ffffffffffffffffffffffffffffffffffffffff16816004015f9054906101000a900473ffffffffffffffffffffffffffffffffffffffff1673ffffffffffffffffffffffffffffffffffffffff16146120ae57611fd930826004015f9054906101000a900473ffffffffffffffffffffffffffffffffffffffff1684612fa1565b5f816002015f9054906101000a900473ffffffffffffffffffffffffffffffffffffffff1673ffffffffffffffffffffffffffffffffffffffff16826005015460405161202590614ed1565b5f6040518083038185875af1925050503d805f811461205f576040519150601f19603f3d011682016040523d82523d5f602084013e612064565b606091505b50509050806120a8576040517f08c379a000000000000000000000000000000000000000000000000000000000815260040161209f9061553f565b60405180910390fd5b506120dd565b6120dc30826002015f9054906101000a900473ffffffffffffffffffffffffffffffffffffffff1684612fa1565b5b806004015f9054906101000a900473ffffffffffffffffffffffffffffffffffffffff1673ffffffffffffffffffffffffffffffffffffffff16827ffa1390d36db41b38c14773b849b5213ea1c843191a60f2497526d58a73cf9b5e836005015460405161214b919061433e565b60405180910390a35050565b606061216282612e05565b5f60065f8481526020019081526020015f20805461217f90614c62565b80601f01602080910402602001604051908101604052809291908181526020018280546121ab90614c62565b80156121f65780601f106121cd576101008083540402835291602001916121f6565b820191905f5260205f20905b8154815290600101906020018083116121d957829003601f168201915b505050505090505f6122066134a9565b90505f81510361221a57819250505061225c565b5f8251111561224e578082604051602001612236929190615597565b6040516020818303038152906040529250505061225c565b612257846134bf565b925050505b919050565b60605f61226e600861328d565b90505f5f90505f600190505b8281116122dc5761228a81613524565b80156122b55750600d5f8281526020019081526020015f2060070160019054906101000a900460ff16155b156122c95781806122c5906155ba565b9250505b80806122d4906155ba565b91505061227a565b505f8167ffffffffffffffff8111156122f8576122f76147f0565b5b60405190808252806020026020018201604052801561233157816020015b61231e614034565b8152602001906001900390816123165790505b5090505f5f90505f600190505b8481116125365761234e81613524565b80156123795750600d5f8281526020019081526020015f2060070160019054906101000a900460ff16155b1561252357600d5f8281526020019081526020015f20604051806101200160405290815f8201548152602001600182015f9054906101000a900473ffffffffffffffffffffffffffffffffffffffff1673ffffffffffffffffffffffffffffffffffffffff1673ffffffffffffffffffffffffffffffffffffffff168152602001600282015f9054906101000a900473ffffffffffffffffffffffffffffffffffffffff1673ffffffffffffffffffffffffffffffffffffffff1673ffffffffffffffffffffffffffffffffffffffff16815260200160038201548152602001600482015f9054906101000a900473ffffffffffffffffffffffffffffffffffffffff1673ffffffffffffffffffffffffffffffffffffffff1673ffffffffffffffffffffffffffffffffffffffff1681526020016005820154815260200160068201548152602001600782015f9054906101000a900460ff161515151581526020016007820160019054906101000a900460ff1615151515815250508383815181106125095761250861510b565b5b6020026020010181905250818061251f906155ba565b9250505b808061252e906155ba565b91505061233e565b508194505050505090565b612549613fdc565b5f612554600861328d565b9050600c5f8281526020019081526020015f206040518060a00160405290815f8201548152602001600182015f9054906101000a900473ffffffffffffffffffffffffffffffffffffffff1673ffffffffffffffffffffffffffffffffffffffff1673ffffffffffffffffffffffffffffffffffffffff168152602001600282015f9054906101000a900473ffffffffffffffffffffffffffffffffffffffff1673ffffffffffffffffffffffffffffffffffffffff1673ffffffffffffffffffffffffffffffffffffffff16815260200160038201548152602001600482015f9054906101000a900460ff16151515158152505091505090565b60605f61265c600861328d565b90505f5f90505f600190505b8281116126c85761267881613524565b80156126a15750600c5f8281526020019081526020015f206004015f9054906101000a900460ff165b156126b55781806126b1906155ba565b9250505b80806126c0906155ba565b915050612668565b505f8167ffffffffffffffff8111156126e4576126e36147f0565b5b60405190808252806020026020018201604052801561271d57816020015b61270a613fdc565b8152602001906001900390816127025790505b5090505f5f90505f600190505b84811161289b5761273a81613524565b80156127635750600c5f8281526020019081526020015f206004015f9054906101000a900460ff165b1561288857600c5f8281526020019081526020015f206040518060a00160405290815f8201548152602001600182015f9054906101000a900473ffffffffffffffffffffffffffffffffffffffff1673ffffffffffffffffffffffffffffffffffffffff1673ffffffffffffffffffffffffffffffffffffffff168152602001600282015f9054906101000a900473ffffffffffffffffffffffffffffffffffffffff1673ffffffffffffffffffffffffffffffffffffffff1673ffffffffffffffffffffffffffffffffffffffff16815260200160038201548152602001600482015f9054906101000a900460ff16151515158152505083838151811061286e5761286d61510b565b5b60200260200101819052508180612884906155ba565b9250505b8080612893906155ba565b91505061272a565b508194505050505090565b5f60055f8473ffffffffffffffffffffffffffffffffffffffff1673ffffffffffffffffffffffffffffffffffffffff1681526020019081526020015f205f8373ffffffffffffffffffffffffffffffffffffffff1673ffffffffffffffffffffffffffffffffffffffff1681526020019081526020015f205f9054906101000a900460ff16905092915050565b5f5f600181111561294857612947615601565b5b84600181111561295b5761295a615601565b5b036129eb57600a5434146129a4576040517f08c379a000000000000000000000000000000000000000000000000000000000815260040161299b90615678565b60405180910390fd5b5f85116129e6576040517f08c379a00000000000000000000000000000000000000000000000000000000081526004016129dd90615706565b60405180910390fd5b612a72565b600b543414612a2f576040517f08c379a0000000000000000000000000000000000000000000000000000000008152600401612a2690615678565b60405180910390fd5b5f8311612a71576040517f08c379a0000000000000000000000000000000000000000000000000000000008152600401612a6890615706565b60405180910390fd5b5b612a7c60086132d2565b5f612a87600861328d565b9050612a933382613564565b612a9d8188613581565b5f6001811115612ab057612aaf615601565b5b856001811115612ac357612ac2615601565b5b03612adb57612ad28187613623565b80915050612aeb565b612ae6818585613759565b809150505b95945050505050565b5f612aff600861328d565b905090565b612b0c614034565b600d5f8381526020019081526020015f20604051806101200160405290815f8201548152602001600182015f9054906101000a900473ffffffffffffffffffffffffffffffffffffffff1673ffffffffffffffffffffffffffffffffffffffff1673ffffffffffffffffffffffffffffffffffffffff168152602001600282015f9054906101000a900473ffffffffffffffffffffffffffffffffffffffff1673ffffffffffffffffffffffffffffffffffffffff1673ffffffffffffffffffffffffffffffffffffffff16815260200160038201548152602001600482015f9054906101000a900473ffffffffffffffffffffffffffffffffffffffff1673ffffffffffffffffffffffffffffffffffffffff1673ffffffffffffffffffffffffffffffffffffffff1681526020016005820154815260200160068201548152602001600782015f9054906101000a900460ff161515151581526020016007820160019054906101000a900460ff1615151515815250509050919050565b3373ffffffffffffffffffffffffffffffffffffffff1660075f9054906101000a900473ffffffffffffffffffffffffffffffffffffffff1673ffffffffffffffffffffffffffffffffffffffff1614612d1a576040517f08c379a0000000000000000000000000000000000000000000000000000000008152600401612d1190615794565b60405180910390fd5b80600a8190555050565b5f7f80ac58cd000000000000000000000000000000000000000000000000000000007bffffffffffffffffffffffffffffffffffffffffffffffffffffffff1916827bffffffffffffffffffffffffffffffffffffffffffffffffffffffff19161480612dee57507f5b5e139f000000000000000000000000000000000000000000000000000000007bffffffffffffffffffffffffffffffffffffffffffffffffffffffff1916827bffffffffffffffffffffffffffffffffffffffffffffffffffffffff1916145b80612dfe5750612dfd8261393b565b5b9050919050565b612e0e81613524565b612e4d576040517f08c379a0000000000000000000000000000000000000000000000000000000008152600401612e4490615182565b60405180910390fd5b50565b5f33905090565b8160045f8381526020019081526020015f205f6101000a81548173ffffffffffffffffffffffffffffffffffffffff021916908373ffffffffffffffffffffffffffffffffffffffff160217905550808273ffffffffffffffffffffffffffffffffffffffff16612ec7836117d3565b73ffffffffffffffffffffffffffffffffffffffff167f8c5be1e5ebec7d5bd14f71427d1e84f3dd0314c0f7b2291e5b200ac8c7c3b92560405160405180910390a45050565b5f5f612f18836117d3565b90508073ffffffffffffffffffffffffffffffffffffffff168473ffffffffffffffffffffffffffffffffffffffff161480612f5a5750612f5981856128a6565b5b80612f9857508373ffffffffffffffffffffffffffffffffffffffff16612f80846107d3565b73ffffffffffffffffffffffffffffffffffffffff16145b91505092915050565b8273ffffffffffffffffffffffffffffffffffffffff16612fc1826117d3565b73ffffffffffffffffffffffffffffffffffffffff1614613017576040517f08c379a000000000000000000000000000000000000000000000000000000000815260040161300e90615822565b60405180910390fd5b5f73ffffffffffffffffffffffffffffffffffffffff168273ffffffffffffffffffffffffffffffffffffffff1603613085576040517f08c379a000000000000000000000000000000000000000000000000000000000815260040161307c906158b0565b60405180910390fd5b61309283838360016139a4565b8273ffffffffffffffffffffffffffffffffffffffff166130b2826117d3565b73ffffffffffffffffffffffffffffffffffffffff1614613108576040517f08c379a00000000000000000000000000000000000000000000000000000000081526004016130ff90615822565b60405180910390fd5b60045f8281526020019081526020015f205f6101000a81549073ffffffffffffffffffffffffffffffffffffffff0219169055600160035f8573ffffffffffffffffffffffffffffffffffffffff1673ffffffffffffffffffffffffffffffffffffffff1681526020019081526020015f205f8282540392505081905550600160035f8473ffffffffffffffffffffffffffffffffffffffff1673ffffffffffffffffffffffffffffffffffffffff1681526020019081526020015f205f82825401925050819055508160025f8381526020019081526020015f205f6101000a81548173ffffffffffffffffffffffffffffffffffffffff021916908373ffffffffffffffffffffffffffffffffffffffff160217905550808273ffffffffffffffffffffffffffffffffffffffff168473ffffffffffffffffffffffffffffffffffffffff167fddf252ad1be2c89b69c2b068fc378daa952ba7f163c4a11628f55a4df523b3ef60405160405180910390a461328883838360016139aa565b505050565b5f815f01549050919050565b5f60025f8381526020019081526020015f205f9054906101000a900473ffffffffffffffffffffffffffffffffffffffff169050919050565b6001815f015f828254019250508190555050565b8173ffffffffffffffffffffffffffffffffffffffff168373ffffffffffffffffffffffffffffffffffffffff1603613354576040517f08c379a000000000000000000000000000000000000000000000000000000000815260040161334b90615918565b60405180910390fd5b8060055f8573ffffffffffffffffffffffffffffffffffffffff1673ffffffffffffffffffffffffffffffffffffffff1681526020019081526020015f205f8473ffffffffffffffffffffffffffffffffffffffff1673ffffffffffffffffffffffffffffffffffffffff1681526020019081526020015f205f6101000a81548160ff0219169083151502179055508173ffffffffffffffffffffffffffffffffffffffff168373ffffffffffffffffffffffffffffffffffffffff167f17307eab39ab6107e8899845ad3d59bd9653f200f220920489ca2b5937696c31836040516134409190614168565b60405180910390a3505050565b613458848484612fa1565b613464848484846139b0565b6134a3576040517f08c379a000000000000000000000000000000000000000000000000000000000815260040161349a906159a6565b60405180910390fd5b50505050565b606060405180602001604052805f815250905090565b60606134ca82612e05565b5f6134d36134a9565b90505f8151116134f15760405180602001604052805f81525061351c565b806134fb84613b32565b60405160200161350c929190615597565b6040516020818303038152906040525b915050919050565b5f5f73ffffffffffffffffffffffffffffffffffffffff1661354583613299565b73ffffffffffffffffffffffffffffffffffffffff1614159050919050565b61357d828260405180602001604052805f815250613bfc565b5050565b61358a82613524565b6135c9576040517f08c379a00000000000000000000000000000000000000000000000000000000081526004016135c090615a34565b60405180910390fd5b8060065f8481526020019081526020015f2090816135e79190615bf2565b507ff8e1a15aba9398e019f0b49df1a4fde98ee17ae345cb5f6b5e2c27f5033e8ce782604051613617919061433e565b60405180910390a15050565b6040518060a001604052808381526020013073ffffffffffffffffffffffffffffffffffffffff1681526020013373ffffffffffffffffffffffffffffffffffffffff16815260200182815260200160011515815250600c5f8481526020019081526020015f205f820151815f01556020820151816001015f6101000a81548173ffffffffffffffffffffffffffffffffffffffff021916908373ffffffffffffffffffffffffffffffffffffffff1602179055506040820151816002015f6101000a81548173ffffffffffffffffffffffffffffffffffffffff021916908373ffffffffffffffffffffffffffffffffffffffff160217905550606082015181600301556080820151816004015f6101000a81548160ff021916908315150217905550905050613755333084612fa1565b5050565b6040518061012001604052808481526020013073ffffffffffffffffffffffffffffffffffffffff1681526020013373ffffffffffffffffffffffffffffffffffffffff1681526020018381526020013373ffffffffffffffffffffffffffffffffffffffff1681526020018381526020018281526020015f151581526020015f1515815250600d5f8581526020019081526020015f205f820151815f01556020820151816001015f6101000a81548173ffffffffffffffffffffffffffffffffffffffff021916908373ffffffffffffffffffffffffffffffffffffffff1602179055506040820151816002015f6101000a81548173ffffffffffffffffffffffffffffffffffffffff021916908373ffffffffffffffffffffffffffffffffffffffff160217905550606082015181600301556080820151816004015f6101000a81548173ffffffffffffffffffffffffffffffffffffffff021916908373ffffffffffffffffffffffffffffffffffffffff16021790555060a0820151816005015560c0820151816006015560e0820151816007015f6101000a81548160ff0219169083151502179055506101008201518160070160016101000a81548160ff021916908315150217905550905050613936333085612fa1565b505050565b5f7f01ffc9a7000000000000000000000000000000000000000000000000000000007bffffffffffffffffffffffffffffffffffffffffffffffffffffffff1916827bffffffffffffffffffffffffffffffffffffffffffffffffffffffff1916149050919050565b50505050565b50505050565b5f6139d08473ffffffffffffffffffffffffffffffffffffffff16613c56565b15613b25578373ffffffffffffffffffffffffffffffffffffffff1663150b7a026139f9612e50565b8786866040518563ffffffff1660e01b8152600401613a1b9493929190615d13565b6020604051808303815f875af1925050508015613a5657506040513d601f19601f82011682018060405250810190613a539190615d71565b60015b613ad5573d805f8114613a84576040519150601f19603f3d011682016040523d82523d5f602084013e613a89565b606091505b505f815103613acd576040517f08c379a0000000000000000000000000000000000000000000000000000000008152600401613ac4906159a6565b60405180910390fd5b805181602001fd5b63150b7a0260e01b7bffffffffffffffffffffffffffffffffffffffffffffffffffffffff1916817bffffffffffffffffffffffffffffffffffffffffffffffffffffffff191614915050613b2a565b600190505b949350505050565b60605f6001613b4084613c78565b0190505f8167ffffffffffffffff811115613b5e57613b5d6147f0565b5b6040519080825280601f01601f191660200182016040528015613b905781602001600182028036833780820191505090505b5090505f82602001820190505b600115613bf1578080600190039150507f3031323334353637383961626364656600000000000000000000000000000000600a86061a8153600a8581613be657613be5615d9c565b5b0494505f8503613b9d575b819350505050919050565b613c068383613dc9565b613c125f8484846139b0565b613c51576040517f08c379a0000000000000000000000000000000000000000000000000000000008152600401613c48906159a6565b60405180910390fd5b505050565b5f5f8273ffffffffffffffffffffffffffffffffffffffff163b119050919050565b5f5f5f90507a184f03e93ff9f4daa797ed6e38ed64bf6a1f0100000000000000008310613cd4577a184f03e93ff9f4daa797ed6e38ed64bf6a1f0100000000000000008381613cca57613cc9615d9c565b5b0492506040810190505b6d04ee2d6d415b85acef81000000008310613d11576d04ee2d6d415b85acef81000000008381613d0757613d06615d9c565b5b0492506020810190505b662386f26fc100008310613d4057662386f26fc100008381613d3657613d35615d9c565b5b0492506010810190505b6305f5e1008310613d69576305f5e1008381613d5f57613d5e615d9c565b5b0492506008810190505b6127108310613d8e576127108381613d8457613d83615d9c565b5b0492506004810190505b60648310613db15760648381613da757613da6615d9c565b5b0492506002810190505b600a8310613dc0576001810190505b80915050919050565b5f73ffffffffffffffffffffffffffffffffffffffff168273ffffffffffffffffffffffffffffffffffffffff1603613e37576040517f08c379a0000000000000000000000000000000000000000000000000000000008152600401613e2e90615e13565b60405180910390fd5b613e4081613524565b15613e80576040517f08c379a0000000000000000000000000000000000000000000000000000000008152600401613e7790615e7b565b60405180910390fd5b613e8d5f838360016139a4565b613e9681613524565b15613ed6576040517f08c379a0000000000000000000000000000000000000000000000000000000008152600401613ecd90615e7b565b60405180910390fd5b600160035f8473ffffffffffffffffffffffffffffffffffffffff1673ffffffffffffffffffffffffffffffffffffffff1681526020019081526020015f205f82825401925050819055508160025f8381526020019081526020015f205f6101000a81548173ffffffffffffffffffffffffffffffffffffffff021916908373ffffffffffffffffffffffffffffffffffffffff160217905550808273ffffffffffffffffffffffffffffffffffffffff165f73ffffffffffffffffffffffffffffffffffffffff167fddf252ad1be2c89b69c2b068fc378daa952ba7f163c4a11628f55a4df523b3ef60405160405180910390a4613fd85f838360016139aa565b5050565b6040518060a001604052805f81526020015f73ffffffffffffffffffffffffffffffffffffffff1681526020015f73ffffffffffffffffffffffffffffffffffffffff1681526020015f81526020015f151581525090565b6040518061012001604052805f81526020015f73ffffffffffffffffffffffffffffffffffffffff1681526020015f73ffffffffffffffffffffffffffffffffffffffff1681526020015f81526020015f73ffffffffffffffffffffffffffffffffffffffff1681526020015f81526020015f81526020015f151581526020015f151581525090565b5f604051905090565b5f5ffd5b5f5ffd5b5f7fffffffff0000000000000000000000000000000000000000000000000000000082169050919050565b614102816140ce565b811461410c575f5ffd5b50565b5f8135905061411d816140f9565b92915050565b5f60208284031215614138576141376140c6565b5b5f6141458482850161410f565b91505092915050565b5f8115159050919050565b6141628161414e565b82525050565b5f60208201905061417b5f830184614159565b92915050565b5f81519050919050565b5f82825260208201905092915050565b8281835e5f83830152505050565b5f601f19601f8301169050919050565b5f6141c382614181565b6141cd818561418b565b93506141dd81856020860161419b565b6141e6816141a9565b840191505092915050565b5f6020820190508181035f83015261420981846141b9565b905092915050565b5f819050919050565b61422381614211565b811461422d575f5ffd5b50565b5f8135905061423e8161421a565b92915050565b5f60208284031215614259576142586140c6565b5b5f61426684828501614230565b91505092915050565b5f73ffffffffffffffffffffffffffffffffffffffff82169050919050565b5f6142988261426f565b9050919050565b6142a88161428e565b82525050565b5f6020820190506142c15f83018461429f565b92915050565b6142d08161428e565b81146142da575f5ffd5b50565b5f813590506142eb816142c7565b92915050565b5f5f60408385031215614307576143066140c6565b5b5f614314858286016142dd565b925050602061432585828601614230565b9150509250929050565b61433881614211565b82525050565b5f6020820190506143515f83018461432f565b92915050565b61436081614211565b82525050565b5f6143708261426f565b9050919050565b61438081614366565b82525050565b61438f8161414e565b82525050565b60a082015f8201516143a95f850182614357565b5060208201516143bc6020850182614377565b5060408201516143cf6040850182614377565b5060608201516143e26060850182614357565b5060808201516143f56080850182614386565b50505050565b5f60a08201905061440e5f830184614395565b92915050565b5f5f5f6060848603121561442b5761442a6140c6565b5b5f614438868287016142dd565b9350506020614449868287016142dd565b925050604061445a86828701614230565b9150509250925092565b5f81519050919050565b5f82825260208201905092915050565b5f819050602082019050919050565b60a082015f8201516144a15f850182614357565b5060208201516144b46020850182614377565b5060408201516144c76040850182614377565b5060608201516144da6060850182614357565b5060808201516144ed6080850182614386565b50505050565b5f6144fe838361448d565b60a08301905092915050565b5f602082019050919050565b5f61452082614464565b61452a818561446e565b93506145358361447e565b805f5b8381101561456557815161454c88826144f3565b97506145578361450a565b925050600181019050614538565b5085935050505092915050565b5f81519050919050565b5f82825260208201905092915050565b5f819050602082019050919050565b61012082015f8201516145b05f850182614357565b5060208201516145c36020850182614377565b5060408201516145d66040850182614377565b5060608201516145e96060850182614357565b5060808201516145fc6080850182614377565b5060a082015161460f60a0850182614357565b5060c082015161462260c0850182614357565b5060e082015161463560e0850182614386565b5061010082015161464a610100850182614386565b50505050565b5f61465b838361459b565b6101208301905092915050565b5f602082019050919050565b5f61467e82614572565b614688818561457c565b93506146938361458c565b805f5b838110156146c35781516146aa8882614650565b97506146b583614668565b925050600181019050614696565b5085935050505092915050565b5f6040820190508181035f8301526146e88185614516565b905081810360208301526146fc8184614674565b90509392505050565b5f6020828403121561471a576147196140c6565b5b5f614727848285016142dd565b91505092915050565b5f5f5f60608486031215614747576147466140c6565b5b5f61475486828701614230565b935050602061476586828701614230565b925050604061477686828701614230565b9150509250925092565b6147898161414e565b8114614793575f5ffd5b50565b5f813590506147a481614780565b92915050565b5f5f604083850312156147c0576147bf6140c6565b5b5f6147cd858286016142dd565b92505060206147de85828601614796565b9150509250929050565b5f5ffd5b5f5ffd5b7f4e487b71000000000000000000000000000000000000000000000000000000005f52604160045260245ffd5b614826826141a9565b810181811067ffffffffffffffff82111715614845576148446147f0565b5b80604052505050565b5f6148576140bd565b9050614863828261481d565b919050565b5f67ffffffffffffffff821115614882576148816147f0565b5b61488b826141a9565b9050602081019050919050565b828183375f83830152505050565b5f6148b86148b384614868565b61484e565b9050828152602081018484840111156148d4576148d36147ec565b5b6148df848285614898565b509392505050565b5f82601f8301126148fb576148fa6147e8565b5b813561490b8482602086016148a6565b91505092915050565b5f5f5f5f6080858703121561492c5761492b6140c6565b5b5f614939878288016142dd565b945050602061494a878288016142dd565b935050604061495b87828801614230565b925050606085013567ffffffffffffffff81111561497c5761497b6140ca565b5b614988878288016148e7565b91505092959194509250565b5f6020820190508181035f8301526149ac8184614674565b905092915050565b5f6020820190508181035f8301526149cc8184614516565b905092915050565b5f5f604083850312156149ea576149e96140c6565b5b5f6149f7858286016142dd565b9250506020614a08858286016142dd565b9150509250929050565b5f67ffffffffffffffff821115614a2c57614a2b6147f0565b5b614a35826141a9565b9050602081019050919050565b5f614a54614a4f84614a12565b61484e565b905082815260208101848484011115614a7057614a6f6147ec565b5b614a7b848285614898565b509392505050565b5f82601f830112614a9757614a966147e8565b5b8135614aa7848260208601614a42565b91505092915050565b60028110614abc575f5ffd5b50565b5f81359050614acd81614ab0565b92915050565b5f5f5f5f5f60a08688031215614aec57614aeb6140c6565b5b5f86013567ffffffffffffffff811115614b0957614b086140ca565b5b614b1588828901614a83565b9550506020614b2688828901614230565b9450506040614b3788828901614abf565b9350506060614b4888828901614230565b9250506080614b5988828901614230565b9150509295509295909350565b61012082015f820151614b7b5f850182614357565b506020820151614b8e6020850182614377565b506040820151614ba16040850182614377565b506060820151614bb46060850182614357565b506080820151614bc76080850182614377565b5060a0820151614bda60a0850182614357565b5060c0820151614bed60c0850182614357565b5060e0820151614c0060e0850182614386565b50610100820151614c15610100850182614386565b50505050565b5f61012082019050614c2f5f830184614b66565b92915050565b7f4e487b71000000000000000000000000000000000000000000000000000000005f52602260045260245ffd5b5f6002820490506001821680614c7957607f821691505b602082108103614c8c57614c8b614c35565b5b50919050565b7f4552433732313a20617070726f76616c20746f2063757272656e74206f776e655f8201527f7200000000000000000000000000000000000000000000000000000000000000602082015250565b5f614cec60218361418b565b9150614cf782614c92565b604082019050919050565b5f6020820190508181035f830152614d1981614ce0565b9050919050565b7f4552433732313a20617070726f76652063616c6c6572206973206e6f7420746f5f8201527f6b656e206f776e6572206f7220617070726f76656420666f7220616c6c000000602082015250565b5f614d7a603d8361418b565b9150614d8582614d20565b604082019050919050565b5f6020820190508181035f830152614da781614d6e565b9050919050565b7f4552433732313a2063616c6c6572206973206e6f7420746f6b656e206f776e655f8201527f72206f7220617070726f76656400000000000000000000000000000000000000602082015250565b5f614e08602d8361418b565b9150614e1382614dae565b604082019050919050565b5f6020820190508181035f830152614e3581614dfc565b9050919050565b7f4e6f2066756e647320746f2077697468647261770000000000000000000000005f82015250565b5f614e7060148361418b565b9150614e7b82614e3c565b602082019050919050565b5f6020820190508181035f830152614e9d81614e64565b9050919050565b5f81905092915050565b50565b5f614ebc5f83614ea4565b9150614ec782614eae565b5f82019050919050565b5f614edb82614eb1565b9150819050919050565b7f4661696c656420746f2077697468647261772066756e647300000000000000005f82015250565b5f614f1960188361418b565b9150614f2482614ee5565b602082019050919050565b5f6020820190508181035f830152614f4681614f0d565b9050919050565b7f41756374696f6e206861736e27742073746172746564000000000000000000005f82015250565b5f614f8160168361418b565b9150614f8c82614f4d565b602082019050919050565b5f6020820190508181035f830152614fae81614f75565b9050919050565b7f41756374696f6e2068617320656e6465640000000000000000000000000000005f82015250565b5f614fe960118361418b565b9150614ff482614fb5565b602082019050919050565b5f6020820190508181035f83015261501681614fdd565b9050919050565b7f4269642073686f756c6420626520686967686572207468616e2063757272656e5f8201527f7420686967686573742062696400000000000000000000000000000000000000602082015250565b5f615077602d8361418b565b91506150828261501d565b604082019050919050565b5f6020820190508181035f8301526150a48161506b565b9050919050565b7f4e487b71000000000000000000000000000000000000000000000000000000005f52601160045260245ffd5b5f6150e282614211565b91506150ed83614211565b9250828201905080821115615105576151046150ab565b5b92915050565b7f4e487b71000000000000000000000000000000000000000000000000000000005f52603260045260245ffd5b7f4552433732313a20696e76616c696420746f6b656e20494400000000000000005f82015250565b5f61516c60188361418b565b915061517782615138565b602082019050919050565b5f6020820190508181035f83015261519981615160565b9050919050565b7f4552433732313a2061646472657373207a65726f206973206e6f7420612076615f8201527f6c6964206f776e65720000000000000000000000000000000000000000000000602082015250565b5f6151fa60298361418b565b9150615205826151a0565b604082019050919050565b5f6020820190508181035f830152615227816151ee565b9050919050565b7f4f6e6c79207468652073656c6c65722063616e207374617274207468652061755f8201527f6374696f6e000000000000000000000000000000000000000000000000000000602082015250565b5f61528860258361418b565b91506152938261522e565b604082019050919050565b5f6020820190508181035f8301526152b58161527c565b9050919050565b7f41756374696f6e2068617320616c7265616479207374617274656400000000005f82015250565b5f6152f0601b8361418b565b91506152fb826152bc565b602082019050919050565b5f6020820190508181035f83015261531d816152e4565b9050919050565b5f6040820190506153375f83018561432f565b615344602083018461432f565b9392505050565b7f416d6f756e742073686f756c64206265206571756976616c656e7420746f20745f8201527f68652061736b20707269636520696e206f7264657220746f207075726368617360208201527f6520746865204e46540000000000000000000000000000000000000000000000604082015250565b5f6153cb60498361418b565b91506153d68261534b565b606082019050919050565b5f6020820190508181035f8301526153f8816153bf565b9050919050565b7f41756374696f6e206973207374696c6c206f6e676f696e6700000000000000005f82015250565b5f61543360188361418b565b915061543e826153ff565b602082019050919050565b5f6020820190508181035f83015261546081615427565b9050919050565b7f41756374696f6e20616c726561647920656e64656400000000000000000000005f82015250565b5f61549b60158361418b565b91506154a682615467565b602082019050919050565b5f6020820190508181035f8301526154c88161548f565b9050919050565b7f4661696c656420746f207472616e736665722066756e647320746f2073656c6c5f8201527f6572000000000000000000000000000000000000000000000000000000000000602082015250565b5f61552960228361418b565b9150615534826154cf565b604082019050919050565b5f6020820190508181035f8301526155568161551d565b9050919050565b5f81905092915050565b5f61557182614181565b61557b818561555d565b935061558b81856020860161419b565b80840191505092915050565b5f6155a28285615567565b91506155ae8284615567565b91508190509392505050565b5f6155c482614211565b91507fffffffffffffffffffffffffffffffffffffffffffffffffffffffffffffffff82036155f6576155f56150ab565b5b600182019050919050565b7f4e487b71000000000000000000000000000000000000000000000000000000005f52602160045260245ffd5b7f53656e6420656e6f75676820657468657220746f206c697374000000000000005f82015250565b5f61566260198361418b565b915061566d8261562e565b602082019050919050565b5f6020820190508181035f83015261568f81615656565b9050919050565b7f4d616b652073757265207468652070726963652069736e2774206e65676174695f8201527f7665000000000000000000000000000000000000000000000000000000000000602082015250565b5f6156f060228361418b565b91506156fb82615696565b604082019050919050565b5f6020820190508181035f83015261571d816156e4565b9050919050565b7f4f6e6c79206f776e65722063616e2075706461746520746865206c697374696e5f8201527f6720707269636500000000000000000000000000000000000000000000000000602082015250565b5f61577e60278361418b565b915061578982615724565b604082019050919050565b5f6020820190508181035f8301526157ab81615772565b9050919050565b7f4552433732313a207472616e736665722066726f6d20696e636f7272656374205f8201527f6f776e6572000000000000000000000000000000000000000000000000000000602082015250565b5f61580c60258361418b565b9150615817826157b2565b604082019050919050565b5f6020820190508181035f83015261583981615800565b9050919050565b7f4552433732313a207472616e7366657220746f20746865207a65726f206164645f8201527f7265737300000000000000000000000000000000000000000000000000000000602082015250565b5f61589a60248361418b565b91506158a582615840565b604082019050919050565b5f6020820190508181035f8301526158c78161588e565b9050919050565b7f4552433732313a20617070726f766520746f2063616c6c6572000000000000005f82015250565b5f61590260198361418b565b915061590d826158ce565b602082019050919050565b5f6020820190508181035f83015261592f816158f6565b9050919050565b7f4552433732313a207472616e7366657220746f206e6f6e2045524337323152655f8201527f63656976657220696d706c656d656e7465720000000000000000000000000000602082015250565b5f61599060328361418b565b915061599b82615936565b604082019050919050565b5f6020820190508181035f8301526159bd81615984565b9050919050565b7f45524337323155524953746f726167653a2055524920736574206f66206e6f6e5f8201527f6578697374656e7420746f6b656e000000000000000000000000000000000000602082015250565b5f615a1e602e8361418b565b9150615a29826159c4565b604082019050919050565b5f6020820190508181035f830152615a4b81615a12565b9050919050565b5f819050815f5260205f209050919050565b5f6020601f8301049050919050565b5f82821b905092915050565b5f60088302615aae7fffffffffffffffffffffffffffffffffffffffffffffffffffffffffffffffff82615a73565b615ab88683615a73565b95508019841693508086168417925050509392505050565b5f819050919050565b5f615af3615aee615ae984614211565b615ad0565b614211565b9050919050565b5f819050919050565b615b0c83615ad9565b615b20615b1882615afa565b848454615a7f565b825550505050565b5f5f905090565b615b37615b28565b615b42818484615b03565b505050565b5b81811015615b6557615b5a5f82615b2f565b600181019050615b48565b5050565b601f821115615baa57615b7b81615a52565b615b8484615a64565b81016020851015615b93578190505b615ba7615b9f85615a64565b830182615b47565b50505b505050565b5f82821c905092915050565b5f615bca5f1984600802615baf565b1980831691505092915050565b5f615be28383615bbb565b9150826002028217905092915050565b615bfb82614181565b67ffffffffffffffff811115615c1457615c136147f0565b5b615c1e8254614c62565b615c29828285615b69565b5f60209050601f831160018114615c5a575f8415615c48578287015190505b615c528582615bd7565b865550615cb9565b601f198416615c6886615a52565b5f5b82811015615c8f57848901518255600182019150602085019450602081019050615c6a565b86831015615cac5784890151615ca8601f891682615bbb565b8355505b6001600288020188555050505b505050505050565b5f81519050919050565b5f82825260208201905092915050565b5f615ce582615cc1565b615cef8185615ccb565b9350615cff81856020860161419b565b615d08816141a9565b840191505092915050565b5f608082019050615d265f83018761429f565b615d33602083018661429f565b615d40604083018561432f565b8181036060830152615d528184615cdb565b905095945050505050565b5f81519050615d6b816140f9565b92915050565b5f60208284031215615d8657615d856140c6565b5b5f615d9384828501615d5d565b91505092915050565b7f4e487b71000000000000000000000000000000000000000000000000000000005f52601260045260245ffd5b7f4552433732313a206d696e7420746f20746865207a65726f20616464726573735f82015250565b5f615dfd60208361418b565b9150615e0882615dc9565b602082019050919050565b5f6020820190508181035f830152615e2a81615df1565b9050919050565b7f4552433732313a20746f6b656e20616c7265616479206d696e746564000000005f82015250565b5f615e65601c8361418b565b9150615e7082615e31565b602082019050919050565b5f6020820190508181035f830152615e9281615e59565b905091905056fea26469706673582212200da434c8736f903872135948277d258d1d8894bdf7d883c46fb2891d3b0cd3cb64736f6c634300081c0033","linkReferences":{}},"methodIdentifiers":{"approve(address,uint256)":"095ea7b3","balanceOf(address)":"70a08231","bid(uint256)":"454a2ab3","createToken(string,uint256,uint8,uint256,uint256)":"ee7ec255","endAuction(uint256)":"b9a2de3a","executeSale(uint256)":"9b1225c4","getAllAuctions()":"cbd2bdfd","getAllNFTs()":"e0391b09","getApproved(uint256)":"081812fc","getAuctionDetails(uint256)":"f20e5e35","getAuctionFee()":"1031ca44","getCurrentToken()":"ef2d1746","getLatestIdToListedToken()":"d1a88ae5","getListingFee()":"b8fe6abe","getListingForToken(uint256)":"1ad2e0ad","getMyNFTs()":"629cb2e4","isApprovedForAll(address,address)":"e985e9c5","name()":"06fdde03","ownerOf(uint256)":"6352211e","safeTransferFrom(address,address,uint256)":"42842e0e","safeTransferFrom(address,address,uint256,bytes)":"b88d4fde","setApprovalForAll(address,bool)":"a22cb465","startAuction(uint256,uint256,uint256)":"91e078bb","supportsInterface(bytes4)":"01ffc9a7","symbol()":"95d89b41","tokenURI(uint256)":"c87b56dd","transferFrom(address,address,uint256)":"23b872dd","updateListingFee(uint256)":"f79d91ae","withdraw(uint256)":"2e1a7d4d"},"id":31}